:030000000220409B
:0C204000787FE4F6D8FD7581220220872D
:101F14004143203D202566200D0A004143203D20F9
:101F24002564200D0A000D0A3D3D3D3D3D3D3D3DEE
:101F34003D3D3D3D3D3D3D3D3D3D3D3D3D3D3D3DCD
:101F44003D3D3D3D3D3D3D3D3D3D0D0A00736B75C1
:101F54003A4B2564200D0A00736F6674207665720F
:101F640073696F6E3A2573200D0A00312E30302EBE
:101F7400303000676170202564200D0A0074696D9B
:101F84006572202564200D0A003D3D3D3D3D3D3DEB
:101F94003D3D3D3D3D3D3D3D3D3D3D3D3D3D3D3D6D
:0E1FA4003D3D3D3D3D3D3D3D3D3D3D0D0A0079
:101923004200EB00004200E800004100ED004100EE
:06193300EA004100E7009C
:10000E00758E5390FE917401F090FF027410F022E1
:1014A600E4900000F09000EAE0700A1221D9900062
:1014B60000EFF08005E4900000F0900000E0640189
:1014C600706090007AE0705A122912EF70107F0156
:1014D60012291812279CE49000A3F00228F1122882
:1014E600CAE4FF12291812225C9000DDE0FFD394B3
:1014F600034016A3E0FE70059000DA8009EED3944F
:101506000340069000CB7402F09000ED7401F012D7
:101516001FB29000DDE0FF1217059000DEE0FF022B
:1015260020CC122912EF60030215D8900000E0B417
:1015360004031228CA900000E06402704A1228CA06
:101546009000DDE0C394095005E004F080069000A9
:10155600DD7401F09000DDE0FFD394034016A3E0B4
:10156600FE70059000DA8009EED3940340069000E1
:10157600CB7402F09000ED7401F0121FB29000DD02
:10158600E0FF1217058048900000E06403704312E4
:1015960028CA9000DEE0C394055005E004F08005FB
:1015A600E49000DEF09000DDE0D394034016A3E063
:1015B600FF70059000DA8009EFD39403400690008F
:1015C600CB7402F09000DEE0FF1220CC12225C12F7
:0215D60026B637
:0115D80022F0
:081AE600900007EEF0A3EFF001
:101AEE009000C6E06402706A90007AE06401706251
:101AFE00900007A3E0FFE49000C6F09000E104F030
:101B0E009000A7E0FED3940F4048EED39F400CE028
:101B1E009F9000DFF0A37401F080169000A7E0FE06
:101B2E00C3EF9EFF9000DFF01228E59000E07402F4
:101B3E00F09000DFE0FFC394024006EFD394144010
:101B4E0007E49000DFF0A3F01226B67D027F0212AA
:101B5E0027409000E0E0FDB401149000DFE0FF7E2E
:101B6E0000900007EE8FF012065BAFF0FE22EDB490
:101B7E0002189000DFE0FFC3900008E09FFF900086
:101B8E0007E09400FEF0A3EFF022900007E0FEA322
:021B9E00E0FF66
:011BA0002222
:100D9600900009ECF0A3EDF0900007EEF0FAA3EF57
:020DA600F0FB60
:100DA800E490000BF0A37432F0A3740AF0A31208C5
:100DB8004200000000C3EB9432EA94004016900011
:100DC80009E0FEA3E0FF900007E0FCA3E0FDD39F4D
:100DD800EC9E4003020E6FE4120342E4FBFA797AB8
:100DE8007844120227C004C005C006C00790000955
:100DF800E0FCA3E0FDE4120342E4FBFA797A7844CC
:100E0800120227D003D002D001D000120029C0045A
:100E1800C005C006C007900007E0FCA3E0FDE4128F
:100E28000342E4FBFA797A7844120227E4FBFA7960
:100E3800FF7843120227A804A905AA06AB07D00722
:100E4800D006D005D00412022790000E120836E40E
:100E5800FFFEFDFC90000EE0F8A3E0F9A3E0FAA382
:100E6800E0FB1202C450057E007FFF2290000EE0D6
:100E7800FCA3E0FDA3E0FEA3E0FF7BF67A28799CC3
:100E8800784012022790000E120836E4FFFE7D9289
:100E98007C4290000EE0F8A3E0F9A3E0FAA3E0FB9F
:100EA8001202C45004E4FEFF2290000EE0FCA3E00E
:100EB800FDA3E0FEA3E0FF7BF37A1F79B678421228
:100EC800022790000E1208367FF37E1F7DB67C4203
:100ED80090000EE0F8A3E0F9A3E0FAA3E0FB12010A
:100EE8001E7BF37A1F79B678421202C4504C9000E8
:100EF8000EE0FCA3E0FDA3E0FEA3E0FF7B497A9DA2
:100F08007980783F12022790000E12083690000B65
:100F1800E004F0E4FFFE7D807C3F90000EE0F8A343
:100F2800E0F9A3E0FAA3E0FB1202C4600250BF900C
:100F3800000BE0FFA3E02FF0804E90000EE0FCA332
:100F4800E0FDA3E0FEA3E0FF7B6D7AC5797E783FE4
:100F580012022790000E12083690000BE004F0E40D
:100F6800FFFE7D807C3F90000EE0F8A3E0F9A3E04F
:100F7800FAA3E0FB1202C440C190000CE0FF90000D
:0F0F88000BE0FEC3EF9EA3F090000CE0FF7E0095
:010F97002237
:0B1A2100900007EBF0A3EAF0A3E9F04F
:101A2C007F007E007D007C00A312084200000000B5
:101A3C00E490000EF07B017A00797B7D14FC12138C
:101A4C00709000A1E0FCA3E0FDE4120342E4FBFA79
:101A5C0079807845120227E4FBFA79A078401201CC
:101A6C001E7B337A3379A37840120227E4FBFA7990
:101A7C0048784312011E90000A12083690000AE0C2
:101A8C00FCA3E0FDA3E0FEA3E0FF7BF47AFD79B4B8
:101A9C00783F12022790000A1208367BFF7A1F79D2
:101AAC001490000AE0FCA3E0FDA3E0FEA3E0FF908D
:101ABC00004212083612097E90000AE0FCA3E0FDF9
:101ACC00A3E0FEA3E0FF12037B900007E0FBA3E082
:0A1ADC00FAA3E0F9EE8FF00206BF56
:100F9800E4900000F0A3F0A3F0A3F0A3F0A3F0A363
:100FA800F09000ECE004F070069000EBE004F0D361
:100FB8009000ECE094109000EBE0942750030210AE
:100FC800F5E4F0A3F07B0190000A04F0A37400F0AC
:100FD800A37404F07A0079021215D9900002E0FE99
:100FE800A3E0FFA3E0FCA3E0FD120D96900000EE45
:100FF800F0A3EFF0121AE6900000EEF0A3EFF090E5
:1010080000A5E0B40123E4F07B017A0079E8121A24
:10101800217BFF7A1F791F9000E8E0FFA3E0900092
:1010280042CFF0A3EFF012097ED3900003E0943290
:10103800900002E0940050030210D4122912EF70BD
:10104800579000EDE0B40133E4F0D3900001E09450
:1010580032900000E094009000CE74024009F090B5
:1010680000D57405F08014F0900078E4F0A3743291
:10107800F09000CF7401F09000D5F09000DEE0FF12
:101088001220CC9000DDE0FF121705900000E0FE72
:10109800A3E0FF122156802E90007AE0B40118E4F4
:1010A8009000A3F012279C9000DDE0FF1217059036
:1010B80000EF7401F0800FE49000A3F07F04122782
:1010C800F2E49000EFF0E49000EAF022E490007A75
:1010D800F09000EFF012279CE49000A3F09000E756
:0D10E80074FFF0FF1217059000EA7401F08C
:0110F50022D8
:101DC60012000E12263E12275FD2AF1227BA122831
:101DD600561210F61228CA12268F7F207E0312286A
:101DE6003F12279C7F081217051228F17F0212283E
:101DF600D8E49000A3F07BFF7A1F792A12097E7B34
:101E0600FF7A1F79519000427423F0A3742BF012CD
:101E1600097E90004274FFF0A3741FF0A3746FF064
:101E26007BFF7A1F795C12097E7BFF7A1F79779098
:101E360000DDE0FF900042E4F0A3EFF012097E7BA4
:101E4600FF7A1F79819000DEE0FF900042E4F0A364
:101E5600EFF012097E7BFF7A1F798D12097E12142C
:0F1E6600A6120F9812280D121E7512292D80EF4B
:10254A00900007EEF0A3EFF0C3E09D900007E09C37
:10255A005006E49000A3F0229000D5E0FFC390005B
:10256A0008E09FFF900007E09400FEC3ED9FEC9EF9
:09257A0050069000A37401F02248
:102156009000CFE0B40102806E9000DDE0B40A008A
:10216600507090216FF828287302218D0221950264
:10217600219D0221A50221AD0221B50221BD022128
:10218600C50221C50221CDAD07AC067F1E803EAD3E
:1021960007AC067F288036AD07AC067F2B802EADB8
:1021A60007AC067F2F8026AD07AC067F36801EADB6
:1021B60007AC067F3C8016AD07AC067F41800EADAE
:1021C60007AC067F468006AD07AC067F4D7E001243
:0321D600254A2275
:102720009000CAE0B401189000DDE0D39403400F9C
:102730007403F0FF1217051226B6E49000CAF022C7
:10181D000D0A3D3D3D3D3D3D3D3D3D3D3D3D3D3D4E
:10182D003D3D3D3D3D3D3D3D3D3D3D3D3D3D3D3DDB
:10183D003D3D3D3D3D3D3D3D3D3D0D0A00706F77CC
:10184D006572206F6E20666C617368206761703AF7
:10185D002564202074696D65723A2564200D0A0097
:10186D00706F776572206F6E20666C61736820767D
:10187D00616C75653A256420207369676E3A25643D
:10188D00200D0A003D3D3D3D3D3D3D3D3D3D3D3D38
:10189D003D3D3D3D3D3D3D3D3D3D3D3D3D3D3D3D6B
:1018AD003D3D3D3D3D3D3D3D3D3D3D3D0D0A003DFB
:1018BD003D3D3D3D3D3D3D3D3D3D3D3D666972738B
:1018CD007420696E697420646174613D3D3D3D3DD8
:1018DD003D3D3D3D3D3D200D0A00307825303458CD
:1018ED002020307825303458202030782530345859
:1018FD002020307825303458200D0A00666C617335
:10190D0068206761703A2564202074696D65723AAC
:06191D002564200D0A0004
:101939004500DD00000000004400E22020050141CF
:0319490000E601B4
:062912009000E6E0FF2248
:062918009000E6EFF02242
:1026DC00D310AF01C3C0D075FDF075FC0F8EFA8F0F
:1026EC00F975FDD275FC2D75FDE175FC1ED0D092EF
:0226FC00AF220B
:10266700D310AF01C3C0D08FFB75FDF075FC0FAE63
:1026770004AF058EFA8FF975FDB475FC4B75FDE156
:0826870075FC1ED0D092AF22B9
:0C22CF007B017A0079DD7D057F047E3CF8
:1022DB00D310AF01C3C0D0900009EEF0A3EFF0A371
:0B22EB00EDF0A3EBF0A3EAF0A3E9F094
:1022F600E4A3F0C2AFF090000BE0FF90000FE0C344
:102306009F502C90000CE0FBA3E475F001120671BF
:10231600A9F0FA1205AEFF900009E475F001120665
:1023260071ADF0FC12266790000FE004F080C7D272
:01233600AFF7
:05233700D0D092AF229E
:040003008F828E83D7
:03000700E493FF80
:01000A0022D3
:10245000900009EEF0A3EFF0A3EBF0A3EAF0A3E9FC
:10246000F0AF051DEF6028900009E475F001120639
:102470007185F082F583E493FF90000BE0FBA3E409
:1024800075F001120671A9F0FAEF1205F480D2225C
:10258300E4FDFCED2400FFE4343CFE12000374E29E
:102593002DF582E43400F583E0B507030C80037F57
:1025A30000220DEDB404DCECC3940440037F01224C
:0225B3007F00A7
:0125B5002203
:1010F600E4900000F090FE927404F0122583EF70E5
:101106000790000004F0807C7BFF7A18791D120995
:101116007E7B017A0079DD7D057F047E3C122450BA
:101126007BFF7A18794A9000DDE0FF900042E4F0F8
:10113600A3EFF09000DEE0FF900044E4F0A3EFF0B0
:1011460012097E7BFF7A18796D9000DFE0FF900030
:1011560042E4F0A3EFF09000E0E0FF900044E4F0FA
:10116600A3EFF012097E7BFF7A18799112097E901F
:1011760000DDE0D394095006A3E0940540069000F4
:10118600007401F0900000E0640160030212127B1B
:10119600FF7A1879BC12097E9000DD7401F0A37401
:1011A60003F07F007E3C1226DC7B017A0079E27D2B
:1011B600041222DB1222CF7B017A0079E27D047FC2
:1011C600007E3C1224507BFF7A1879E79000E2E01B
:1011D600FF900042E4F0A3EFF09000E3E0FF900000
:1011E60044E4F0A3EFF09000E4E0FF900046E4F062
:1011F600A3EFF09000E5E0FF900048E4F0A3EFF0E5
:1012060012097E7BFF7A18799112097E7BFF7A1983
:1012160079099000DDE0FF900042E4F0A3EFF09042
:0F12260000DEE0FF900044E4F0A3EFF002097E49
:1026B6007F047E3C1226DC7B017A0079E27D047F72
:1026C600001222DB1222CF7B017A0079DD7D057FA5
:0626D600047E3C022450CA
:0E28AE00EF1F70011E144E6004000080F32224
:10283F007DA07C01ED1D70011C144C70F7EF1F7013
:06284F00011E144E70EAA8
:012855002260
:032931000228AECB
:1027D70090FF0974C1F090FF08F090FF07F090FF99
:0B27E70006F0D291D290D287D2862259
:08249000900042EFF0A3EDF013
:10249800E4A3F0F0900043E0FFA3E0C39F5027C2FD
:1024A80087900042E020E704C2868002D286D28765
:1024B8007F057E00122931900042E025E0F090006F
:0624C80044E004F080CEA8
:0124CE0022EB
:0824CF00900042EFF0A3EDF0D4
:1024D700E4A3F0F0900043E0FFA3E0C39F5027C2BE
:1024E70087900042E020E004C2868002D286D2872D
:1024F7007F057E00122931900042E0C313F090005F
:0625070044E004F080CE68
:01250D0022AB
:1027F200900008EFF0C2917D047F80122490900037
:0B28020008E0FF7D08122490D2912214
:10261200900040EFF0A3EDF0C2917D037FA0122461
:1026220090900040E025E025E0FF7D061224909086
:0C2632000041E0FF7D041224CFD2912271
:09290900D291D290D287D286222D
:08194C004100EE004100EF0034
:05001E007F060227F23D
:052924007F040227F210
:10277E00E4900000F0F0900000E0FFC39420500DB4
:0D278E007D0F122612900000E004F080E99B
:01279B00221B
:10279C00E490003FF0F090003FE0FFC39420500D18
:0D27AC00E4FD12261290003FE004F080E9E9
:0127B90022FD
:10268F001227D77F521227F27F301227F27F0A12BA
:10269F0027F27F081227F27F021227F27F061227F6
:0726AF00F212279C02277EB6
:0E28BC00E4FD7F1C122612E4FD7F1F0226128F
:1020CC00900007EFF07F061227F2E4FD7F1F122627
:1020DC0012E4FD7F1C122612900007E014601B1402
:1020EC00602314602B14603A1460492405705A7DE7
:1020FC000A7F1B1226127D0E80317D0B7F1B122650
:10210C00127D0A80267D0E7F1B1226127D0A801BF3
:10211C007D0A7F1B1226127D0A7F1C1226127D0B54
:10212C0080227D0A7F1B1226127D0B7F1C12261229
:10213C007D0A80107D0A7F1B1226127D0A7F1C12DD
:0A214C0026127D0E7F1F12261222BC
:10170500900007EFF07F061227F2E4FD7F1D1226F9
:1017150012E4FD7F1E1226129000EFE06401702393
:101725009000EEE070157D067F1D1226127D0E7F5E
:101735001E1226129000EE7401F022E49000EEF0E5
:1017450002180F900007E0B401047D068063900045
:1017550007E0B4020B7D0B7F1D1226127D0C806500
:10176500900007E0B4030B7D0F7F1D1226127D0448
:101775008053900007E0B4040B7D067F1D122612EE
:101785007D068041900007E0B4050B7D0D7F1D129D
:1017950026127D06802F900007E0B4060B7D0D7F95
:1017A5001D1226127D0E801D900007E0B407067DF0
:1017B500077F1D805F900007E0B4080D7D0F7F1D3A
:1017C5001226127D0E7F1E804B900007E0B4090D96
:1017D5007D0F7F1D1226127D067F1E803790000724
:1017E500E0F470339000EEE070177D017F1D122646
:1017F500127D0E7F1E1226129000EE7401F0022853
:10180500CAE49000EEF01228F1E4FD7F1C122612C6
:08181500E4FD7F1F12261222E0
:101954005E00A8000000000000000000000000007D
:101964000000000000000000000000000000000073
:09197400004100C6004100A7007B
:10263E0090FF0E74C1F090FF0F7461F090FFA074C4
:10264E0016F090FFA104F075CEFF75CDE675CC06A1
:09265E00759E02759810D2AC22A1
:0C28E500C2AC8F993099FDC299D2AC2290
:032934000228E591
:0B25E50090000EEBF0A3EAF0A3E9F079
:1025F000E4FEEEC39D501A90000EE0FBA3E0FAA3A8
:10260000E0F98E827583001205C7FF1229340E800F
:01261000E1E8
:0126110022A6
:102740009000097455F0A3EFF0A3EDF0A3740DF021
:0F275000A3740AF07B017A0079097D050225E563
:06291E00AE071228E522BD
:03002300022403B1
:0D240300C0E0C083C082C0D075D000C0070B
:10241000E59830E030AF995398FE9000C6E0146024
:1024200019047021EFB4551D9000A8F09000A6E0AB
:1024300004F09000C67401F0800B9000A7EFF090BC
:0524400000C67402F06B
:0B244500D007D0D0D082D083D0E0328E
:10197D0041007A004100A4004100A3004100A501EF
:10198D0042007800326028007B000000000000005B
:10199D00000000000000000000000000000000003A
:1019AD00000000000000000000000000000000002A
:1019BD000042006F000041007100420072000041C2
:0C19CD000074004200750000410077012A
:1027BA0090FF1D7461F090FF15F090FF16F090FFE6
:0D27CA0002F090FF1074C1F090FF00F022AB
:10280D002082099000A4E0700304F0229000A4E05F
:0A281D00B401063082037402F022B9
:101E7500E4900000F09000A3E064017034A3E064F6
:101E8500026003021F1390006F75F00112065BFEDE
:101E9500C3900079E095F0900078E09E5070E49052
:101EA500006FF0A3F0D2807F06FE12283FC280802B
:101EB50058C2809000A5E0640170539000A4E064CE
:101EC50002704B90006F75F00112065BFED3E5F0D2
:101ED5009414EE94004037E490006FF0A3F0900066
:101EE50000F0D2A0122929900000E025E0247BF51E
:101EF50082E43400F583EEF0A3EFF0C2A090000079
:0E1F0500E004F0E0C3941440D9E49000A4F08E
:011F130022AB
:101BA100E4900002F0A2A533900001F0900071E0F2
:101BB10014602614604E147003021C442403600355
:101BC100021C4D900001E06003021C52900072F073
:101BD100A3F090007104F08078900001E0706B90A8
:101BE1000073E004F07006900072E004F0C390000E
:101BF10073E09403900072E09400403E9000717491
:101C010002F08036900001E0B40106A37404F08074
:101C11003B900073E004F07006900072E004F0C3A2
:101C2100900073E09478900072E09400400C900072
:101C3100027405F09000717403F07F0A7E0012288F
:101C41003F800E900001E0B401078000E490007134
:061C5100F0900002E0FF2C
:011C5700226A
:101C5800E4900002F0A2A633900001F0900074E036
:101C680014602614604E147003021CFB24036003E6
:101C7800021D04900001E06003021D09900075F048
:101C8800A3F090007404F08078900001E0706B90ED
:101C98000076E004F07006900075E004F0C3900050
:101CA80076E09403900075E09400403E90007474D0
:101CB80002F08036900001E0B40106A37404F080BD
:101CC8003B900076E004F07006900075E004F0C3E5
:101CD800900076E094F0900075E09400400C90003D
:101CE800027406F09000747403F07F0A7E001228D4
:101CF8003F800E900001E0B401078000E49000747A
:061D0800F0900002E0FF74
:011D0E0022B2
:1021D900121BA1BF05037F0122900077E060122046
:1021E900A50F7F327E0012283FE4900077F07F042C
:1021F90022121C58BF0621122912BF01149000E1B6
:10220900E0700E90007A04F09000E1F01226B6809A
:102219003FE490007AF08038900077E0602330A6A0
:102229000320B51D90007AE070177F32FE12283F17
:10223900E4900077F020A6037F032220B5127F02E5
:102249002230A60C30B50930A5069000777401F04C
:022259007F0004
:01225B002260
:101D0F0065786368616E67655F686561745F76614A
:101D1F006C7565200D0A0070726F74656374200D09
:101D2F000A0074696D65206F6666200D0A0074697C
:101D3F006D655F746F5F302E3548202074696D6557
:101D4F005F7365633D2564200D0A0074696D655FDF
:101D5F00746F5F3148202074696D655F7365633DF3
:101D6F002564200D0A0074696D655F746F5F3248DA
:101D7F00202074696D655F7365633D2564200D0ACE
:101D8F000074696D655F746F5F3448202074696DEE
:101D9F00655F7365633D2564200D0A0074696D6589
:101DAF005F746F5F3848202074696D655F7365637A
:071DBF003D2564200D0A0020
:1019D9004100D4004200D200004200D6000041007C
:1019E900CA004100CB004100DA004100D5004100A6
:1019F900CE004200CC00004200D000004200C800E6
:101A0900004100CF004200D800004200DB00004145
:031A190000C70003
:0E28CA009000C77401F0E49000DBF0A3F02250
:0C28F100E49000C7F09000DBF0A3F022A0
:1025B6009000C7E0B40125D2A09000DBE475F001DD
:1025C60012065BFED3E5F0942CEE94014010C2A0F7
:0F25D600E49000C7F09000DBF0A3F022C2A02237
:0C28FD009000D2EEF0A3EFF0E4A3F02274
:101FB200EFB40A00400302203F901FC2F8282873A2
:101FC200021FE0021FEA021FF4021FFE02200902A2
:101FD200201402201F02202A022035022035900000
:101FE200C8E4F0A3741EF0229000C8E4F0A3749633
:101FF200F0229000C8E4F0A374F0F0229000C874BC
:1020020001F0A3742CF0229000C87401F0A374684C
:10201200F0229000C87401F0A374A4F0229000C8CA
:102022007402F0A37494F0229000C87403F0A374B5
:0E203200FCF0229000C87406F0A37454F02253
:1023A600900078E4F0A37432F09000DDE0B40A0007
:1023B600504A9023BFF82828730223DD0223DF0248
:1023C60023E10223E30223EA0223F10223F3022399
:1023D600F50223FC0223FC8004800280009000D5D5
:1023E6007401F0229000D57403F0228002800090E0
:0D23F60000D57405F0229000D57408F02287
:10250E009000CEE0B402349000CCE475F0011206D7
:10251E005BFEC39000C9E095F09000C8E09E501B92
:10252E007BFF7A1D790F12097EE49000CEF09000A9
:0C253E00CCF0A3F09000CFF01223A622F6
:10225C00E49000D4F09000DEE0FF70089000D2F023
:10226C00A3F08052EFB4010C9000D27407F0A304D9
:10227C00F0E48042EFB4020D9000D2740EF0A3741F
:10228C0010F0E48031EFB4030D9000D2741CF0A375
:10229C007420F0E48020EFB4040D9000D27438F078
:1022AC00A37440F0E4800FEFB405179000D2747063
:1022BC00F0A37480F0E49000D6F0A3F09000D0F07E
:0322CC00A3F0225A
:10285600E490FE80F0F589758CF2758AFBC28DD204
:06286600A9D28CD2AF22C2
:03000B00021235A9
:10123500C0E0C0F0C083C082C0D075D000C000C07F
:1012450001C002C003C004C005C006C0071225B610
:10125500122912EF600302132E9000D4E004F0E08F
:10126500C39464500302135512250E9000DAE0B4BE
:10127500022D9000D7E004F070069000D6E004F04F
:10128500D39000D7E094209000D6E0941C401090B5
:1012950000DAE4F09000D6F0A3F09000CA04F0D391
:1012A5009000D3E094009000D2E094004048A3E081
:1012B50024FFF09000D2E034FFF09000CBE0640210
:1012C50070609000D7E004F070069000D6E004F05E
:1012D500D39000D7E094209000D6E0941C40439032
:1012E50000CA7401F0A3E4F09000D6F0A3F07BFFF0
:1012F5007A1D792680299000DEE060267F0112297B
:10130500189000D2E4F0A3F09000D6F0A3F090007E
:10131500CBF09000DAF012279C7BFF7A1D79311211
:10132500097E9000D4E4F0802790007AE0B4012093
:101335009000D8E475F00112065BFED3E5F094E069
:10134500EE942E400B90007AE4F09000D8F0A3F0D4
:10135500D007D006D005D004D003D002D001D000EC
:0B136500D0D0D082D083D0F0D0E03296
:10233C009000D0E475F00112065BFEE5F08EF01211
:10234C0008B923660708236E0E1023761C20237E03
:10235C00384023867080000023A57BFF7A1D793DD1
:10236C00801E7BFF7A1D795A80167BFF7A1D79754A
:10237C00800E7BFF7A1D799080067BFF7A1D79ABEE
:10238C009000D2E0FFA3E0900042CFF0A3EFF01258
:0A239C00097EE49000D0F0A3F022C7
:041A1C004100F00095
:102827007E009000F0E0FD7C001208E6E47B64FA8D
:07283700F9F81207968FDF8C
:01283E002277
:1026FE0090FF0074C1F0E490FF9CF0AC06AD077E35
:10270E007A7F12120606EF149000F0F0F5DE75DDFA
:02271E00972200
:10275F0090FF017401F090FF03F090FF17F075B434
:0F276F00807F147E001228AE90FE9B7449F022EA
:10286C00E4FFFE75B50143B440E5B430E5FB53B469
:05287C00DFAEB7AFB6AE
:012881002234
:10288200E4FFFE75B50343B440E5B430E5FB53B451
:05289200DFAEB7AFB698
:01289700221E
:10289800E4FFFE75B50F43B440E5B430E5FB53B42F
:0528A800DFAEB7AFB682
:0128AD002208
:0429290012289822B6
:0B15D900900007EBF0A3EAF0A3E9F09C
:1015E40090000D12084200000000E4900011F0F099
:1015F40090000DE0F8A3E0F9A3E0FAA3E0FB1228C1
:101604006CE4FCFDEB2FFFEA3EFEED39FDEC38FC0B
:1016140090000D120836900011E004F0E0C3940528
:1016240040CE90000DE0FCA3E0FDA3E0FEA3E0FFAC
:10163400E47B05FAF9F812079690000D120836E4D7
:101644007F887E13FDFC90000DE0F8A3E0F9A3E091
:10165400FAA3E0FB12070BE4FB7A10F9F8120796E1
:10166400900007E0FBA3E0FAA3E0F9EE8FF0120686
:10167400BF90000D12084200000000E4900011F039
:1016840090000DE0F8A3E0F9A3E0FAA3E0FB122830
:1016940082E4FCFDEB2FFFEA3EFEED39FDEC38FC65
:1016A40090000D120836900011E004F0E0C3940598
:1016B40040CE90000DE0FCA3E0FDA3E0FEA3E0FF1C
:1016C400E47B05FAF9F812079690000D120836E447
:1016D4007F887E13FDFC90000DE0F8A3E0F9A3E001
:1016E400FAA3E0FB12070BE4FB7A10F9F812079651
:1016F40090000AE0FBA3E0FAA3E0F9EE8FF0020603
:01170400BF25
:0813700090000FECF0A3EDF07A
:10137800E4900013F0A3F0900010E024FFFF900029
:101388000FE034FFFEC3900014E09FEE6480F890F5
:101398000013E064809840030214A5E4900015F05F
:1013A800A3F0900010E024FFFF90000FE034FFFE50
:1013B800900013E0FCA3E0FDC3EF9DFFEE9CFEA3AD
:1013C800E0FCA3E0FDC39FEE6480F8EC64809840E5
:1013D80003021491ED2401FFE43CFEEF25E0FFEE4B
:1013E800338F82F583120687FDACF0900016E02556
:1013F800E0FF900015E0338F82F583120687D39DB6
:10140800E5F09C4070900015E0FCA3E0FD25E0FFAE
:10141800EC338F82F583120687FF900011E5F0F018
:10142800A3EFF0ED2401FFE43CFEEF25E0FFEE33EF
:101438008F82F583120687FD900016E025E0FF9065
:101448000015E0338F82F583E5F08DF01206DE900B
:101458000011E0FCA3E0FD900016E02401FF9000DD
:1014680015E03400FEEF25E0FFEE338F82F583ECC4
:101478008DF01206DE900016E004F060030213AA55
:10148800900015E004F00213AA900014E004F06044
:0D1498000302137F900013E004F002137FA5
:0114A5002224
:0D28D80075BD17EF75F02BA490FEA0F02247
:04292D0043BD102274
:100026000203E7E86480F8E933E83360110460F01E
:10003600ED33EC337009E8FCE9FDEAFEEBFF220440
:1000460060DED3EB9FEA9EE99DE8C2E78CF0C2F73B
:1000560095F0400CE8CCF8E9CDF9EACEFAEBCFFB07
:100066001203B285D0F05804700320D5B3E80470AB
:10007600075002B2D50203F192D5EC0460F7E4CC46
:10008600C0E0C398F8603B94186008400DD0E0FBD0
:100096000203C9E4FBFAC9FC8028E830E406E4C997
:1000A600FBE4CAFCE830E305E4C9CACBFCE8540724
:1000B6006010F8C3E913F9EA13FAEB13FBEC13FC2F
:1000C600D8F130F52FC3E49CFCEF9BFFEE9AFEEDD2
:1000D60099FDD0E0FBEF4E4D4C701222DB0302037C
:1000E600EEEC2CFCEF33FFEE33FEED33FDED30E7A7
:1000F600EB0203C9EF2BFFEE3AFEED39FDD0E0FB34
:1001060050130BBB00030203F1ED13FDEE13FEEFDC
:0801160013FFEC13FC0203C906
:10011E00EC4D6011E8497017ED33EC3304600DE4DB
:10012E00FCFFFEFD22E933E8330470F80203E71208
:10013E0003B258046009E4CC248150062850090209
:10014E0003F12840030203EEC0E0EB4A7044B9808D
:10015E0006D0E0FB0203DDEF4E701CBD8008EBFF06
:10016E00EAFEE9FD80EBE98DF0A4FEE5F002020760
:10017E00E9CDF9EAFEEBFFEF89F0A4FCE5F0CE89BC
:10018E00F0A42EFFE435F0CD89F0A42DFEE435F079
:10019E008067EF4E7005BD80D780C3EF8BF0A4ACA7
:1001AE00F0EE8BF0A42CFCE435F0F8EF8AF0A42CE2
:1001BE00E5F038FCE433CB8DF0A42CFCE5F03BF8F5
:1001CE00EE8AF0A42CFCE5F038F8E433CF89F0A4E5
:1001DE002CFCE5F038CF3400CE89F0A42FFFE5F0EB
:1001EE003EFEE433C98DF0A42EFEE5F039CD8AF043
:1001FE00A42FFFE5F03EFEE43DFD33D0E0FB5007BB
:10020E000BBB000F0203F1EC2CFCEF33FFEE33FEC1
:06021E00ED33FD0203C9EF
:100224000203F1EC5D046005E8590470030203E77E
:100234001203B2580460F6EC4860F2EC7004FDFE60
:10024400FF22C860DB2481C85009C39860025006AD
:100254000203EE9850CAF582E9294B4A7005AB8235
:100264000203DD75F0007C1A7880C3EF9BEE9AEDF3
:1002740099400DC3EF9BFFEE9AFEED99FDE842F025
:10028400DC23ACF0D0E0FFD0E0FED0E0FDAB822078
:10029400E7101BEB60BAEC2CFCEF33FFEE33FEED02
:1002A40033FD0203C9E803F830E705C0F075F00038
:1002B400EF2FFFEE33FEED33FD40B830E7C280AAE6
:1002C40074F8CC6480CCC86480C8F58204604FC3E1
:1002D400EB9FF5F0EA9E42F0E99D42F0E89C45F080
:1002E400603C501DE5825FFFE582D313CB5BCBF40A
:1002F4002B5582FB50280ABA002409B90020088033
:100304001DE5825BFBE582D313CF5FCFF4C3132FCC
:100314005582FF50090EBE00050DBD00010CC3EB54
:100324009FF5F0EA9E42F0E99D42F0E89C45F060BA
:0903340007CC4820E701B3EC22DC
:10033D0075F020800E75F010800575F0087D007E3B
:10034D00007F003392D530D503120828EC334010CE
:10035D00EF33FFEE33FEED33FDEC33FCD5F0ED2244
:0E036D00E5F0247EA2D513CC92E7CDCEFF2280
:10037B00EDD2E7CD33EC3392D524814006E4FFFE7A
:10038B00FDFC22FCE4CFCECDCC24E0501174FF80D9
:10039B00EDC3CC13CCCD13CDCE13CECF13CF047076
:0703AB00F030D5DE02082846
:10091300E50D2442F582E43400F583E0050D2290D1
:10092300003F301003900042E475F0011208730297
:1009330005AE2009E97F2ED2098018EF540F2490C9
:10094300D43440D4FF300D0BEF24BFB41A0050034E
:100953002461FFE50E6002150E0511E51170020515
:100963001030100E90003FE475F001120873EF028F
:1009730005F402291E7403D2108003E4C210F50D9E
:1009830090003F12088AE4F50EF510F511E50E60AC
:10099300077F2012095680F5750FFFC20AC209C2EC
:1009A3000BC20CC20EC20FC211120922FF700D300E
:1009B30010057F00120967AF11AE1022B4255FC284
:1009C300D5C20D120922FF24D0B40A00501A75F0C3
:1009D3000A780E30D50508B6FF0106C6A426F62010
:1009E300D5047002D20C80D924CFB41A00EF50047E
:1009F300C2E5D20D020C59D20A80C6D20980C0D2F8
:100A03000B80BCD2D580BAD20E80B47F2012095697
:100A1300200B077401B50E0040F1120913FF1209F0
:100A230056020990D211D20F8095120913FB1209B5
:100A330013FA120913F94A4B700679577A0D7BFFA3
:100A4300200B2EE50E602A7E008E82758300120530
:100A5300C760060EEE650F70F0C2D5EBC0E0EAC0CA
:100A6300E0E9C0E0EE120CBAD0E0F9D0E0FAD0E051
:100A7300FB1205AEFF60AAEBC0E0EAC0E0E9C0E00C
:100A8300120956D0E02401F9D0E03400FAD0E0FB9B
:100A9300E50F0460DCD50FD98087D20B80A2120C3E
:100AA3009C60F7E50F7001041203FCA90F600DE5CC
:100AB3000F600914F50F120D44EF60F3EA30E702FB
:100AC300F404C3995079EAF4250F0430E701E404F0
:100AD300F50F800D120C9C60C1EA050F250F120360
:100AE300FCEA90006EF030E701E4250F04D50F0413
:100AF300200E0114120CBAE4C0E0120D4490006EF3
:100B0300E0601320E70714F012093E802204F0D0BE
:100B1300E014C0E07F0012093EE50F6007120935BB
:100B2300150F800B300E03120935D0E0020990D067
:100B3300E00480C4120C9C609EE50F041203FC9039
:100B4300006EEAF0E50F200E026001042404120C8B
:010B5300BAE7
:100B540074FF04C0E0120D4412093EE50F200E029A
:100B64006003120935D0E0B50FE87F4512094890BB
:100B7400006EE07F2B30E7047F2DF404C0E01209FF
:100B840056D0E075F00A84C0F012093FD0E0120993
:100B94003F020990791080027908C20FC2118008BF
:100BA400D2D5790A8004790AC2D5E50F047002F51A
:100BB4000FE4FAFDFEFF120913FC7B08200A13124E
:100BC4000913FD7B1030090A120913FE120913FFE1
:100BD4007B20EC3382D592D55013C3E43009069FB1
:100BE400FFE49EFEE4200A039DFDE49CFCE4CBF8B4
:100BF400C20AEC700CCFCECDCCE824F8F870F380A8
:100C040017C3EF33FFEE33FEED33FDEC33FCEB3370
:100C1400FB994002FB0FD8E9EB300A05F8D0E0C499
:100C240048B20AC0E00AEC4D4E4F78207B0070C2F7
:100C3400EAB50F0040BCC0E0120CBCD0F0D0E020FC
:100C44000A04C4C0E0C4B20AC0F012093FD0F0D50F
:100C5400F0EB0209901208930A2D530B985809FEE1
:100C64004C09FA420B9C4F0BA4440BA4490A1343AE
:100C74000BAA550AD7460B37450AA1470D77500AE8
:100C8400022D0A062E0A292B0A0A230A27200D60A0
:100C94002A09C24800000A21E50FB4FF03750F06B4
:100CA400120913FC120913FD120913FE120913FF92
:100CB400900067020439790AA2D5200C14300E0979
:100CC400B910020404B9080104A2D5200F0250018E
:100CD40004200B68920BB50E005034C0E07F203026
:100CE4000C197F30A20B720F720E500F120D13C22B
:100CF4000BC20FC20EC2117F30800F300E03E9C049
:100D0400E0120956300E03D0E0F9D0E0B50ECC3035
:100D14000E177F30B9100C1209567F58300D077F1B
:100D2400788003B90803120956300B057F2D020998
:100D3400567F202011F87F2B200FF322920B80CFB7
:100D44007F00B40700500B2467F582E43400F58378
:100D5400E0FF22286E756C6C2900D20A1209133048
:100D64000AF8C20A780E30D50108F60209C22D50DD
:100D74004349581209132403B405004001E4900DBB
:100D84007293120947743A120947D20C750E040281
:020D94000B98BA
:1003B200E9D2E7C933E833F892D5EDD2E7CD33EC91
:0703C20033FC5002B2D5220A
:1003C900EC30E7100FBF000C0EBE00080DBD000495
:1003D9000BEB6014A2D5EB13FCED92E7FD2274FF41
:1003E900FCFDFEFF22E480F8A2D574FF13FC7D809A
:0303F900E480EFAE
:1003FC00F920E73624F950037907E4F42402FBE5ED
:10040C0082158270021583DBF6E024FB501BE96039
:10041C0014E4F0E582158270021583E004F0B40A4E
:0D042C0008E4F0D9EE7401F00A22C2D522D6
:10043900ED33EC3392D5FA602AB4FF33EDC2E77B92
:10044900FF60067A04795EE4227A04796720D5048C
:100459007A047962224E614E002B494E46002D499D
:100469004E4600E47A08F0A3DAFC7B00740722C048
:1004790083C082ECC0E0EDC0E0EEC0E0EFC0E0EA8E
:1004890075F010A4CAABF075F04DA42BFBE435F060
:10049900FCEA2410FAEB34C5FBEC34D9FCEDC2E7D5
:1004A900FF75F056A4F42411C5F0F434C58FF0A4F7
:1004B9002AE5F03BE43CF020E71412056ED0E0FF9A
:1004C900D0E0FED0E0FDD0E0FC1202278014F40455
:1004D90012056ED0E0FFD0E0FED0E0FDD0E0FC12C6
:1004E900011ED082D083E0FAEDD2E7CD33EC33247C
:1004F90082FBE4C3CF33CFCE33CECD33CD33DBF361
:100509007B0775F00A846004F0A31B0AE5F0F0A3E9
:100519008FF0740AA4FFACF08EF0740AA42CFEAC20
:10052900F050010C8DF0740AA42CFDE435F0F0A311
:05053900DBDE74072267
:10053E003F8000004120000042C80000447A0000C5
:10054E00461C400047C35000497424004B18968047
:10055E004CBEBC205A0E1BCA6753C21C749DC5AE3E
:10056E00FB60065407601C232312059CEB54386075
:10057E000912058812059712011EECF8EDF9EEFA34
:10058E00EFCB22EB12059780F1543803241C900513
:10059E003EFE93FC0EEE93FD0EEE930ECE93FF22D7
:10204C00021DC6E493A3F8E493A34003F68001F2C7
:10205C0008DFF48029E493A3F85407240CC8C33395
:10206C00C4540F4420C8834004F456800146F6DF64
:10207C00E4800B0102040810204080901923E47EB8
:10208C00019360BCA3FF543F30E509541FFEE49359
:10209C00A360010ECF54C025E060A840B8E493A320
:1020AC00FAE493A3F8E493A3C8C582C8CAC583CA4B
:1020BC00F0A3C8C582C8CAC583CADFE9DEE780BE03
:011A200000C5
:1005AE00BB010689828A83E0225002E722BBFE024B
:0905BE00E32289828A83E493227E
:1005C700BB010CE58229F582E5833AF583E02250E9
:1005D70006E92582F8E622BBFE06E92582F8E22233
:0D05E700E58229F582E5833AF583E493224D
:1005F400BB010689828A83F0225002F722BBFE01E6
:02060400F322DF
:10060600BC000BBE0029EF8DF084FFADF022E4CCD8
:10061600F875F008EF2FFFEE33FEEC33FCEE9DECA1
:10062600984005FCEE9DFE0FD5F0E9E4CEFD22EDE7
:10063600F8F5F0EE8420D21CFEADF075F008EF2F31
:10064600FFED33FD4007985006D5F0F222C398FD22
:050656000FD5F0EA22BF
:10065B00C5F0F8A3E028F0C5F0F8E582158270022A
:06066B001583E038F022C7
:10067100A3F8E0C5F025F0F0E5821582700215833C
:06068100E0C838F0E82299
:10068700BB0110E58229F582E5833AF583E0F5F0B1
:10069700A3E0225009E92582F886F008E622BBFE8E
:1006A7000AE92582F8E2F5F008E222E5832AF583D4
:0806B700E993F5F0A3E9932299
:1006BF00BB010A89828A83F0E5F0A3F0225006F786
:0F06CF0009A7F01922BBFE06F3E5F009F3192283
:1006DE00F8BB0111E58229F582E5833AF583E8F04E
:1006EE00E5F0A3F0225009E92582C8F608A6F0220B
:0D06FE00BBFE09E92582C8F2E5F008F222F2
:10070B00E88FF0A4CC8BF0A42CFCE98EF0A42CFC8D
:10071B008AF0EDA42CFCEA8EF0A4CDA8F08BF0A40B
:10072B002DCC3825F0FDE98FF0A42CCD35F0FCEB6A
:10073B008EF0A4FEA9F0EB8FF0A4CFC5F02ECD392F
:0F074B00FEE43CFCEAA42DCE35F0FDE43CFC229C
:10075A0075F008758200EF2FFFEE33FECD33CDCC56
:10076A0033CCC58233C5829BED9AEC99E5829840D9
:10077A000CF582EE9BFEED9AFDEC99FC0FD5F0D6B6
:10078A00E4CEFBE4CDFAE4CCF9A88222B800C1B9E0
:10079A000059BA002DEC8BF084CFCECDFCE5F0CB1E
:1007AA00F97818EF2FFFEE33FEED33FDEC33FCEB57
:1007BA0033FB10D703994004EB99FB0FD8E5E4F912
:1007CA00FA227818EF2FFFEE33FEED33FDEC33FCFF
:1007DA00C933C910D7059BE99A4007EC9BFCE99AF3
:1007EA00F90FD8E0E4C9FAE4CCFB2275F010EF2F38
:1007FA00FFEE33FEED33FDCC33CCC833C810D70738
:10080A009BEC9AE899400AED9BFDEC9AFCE899F872
:0E081A000FD5F0DAE4CDFBE4CCFAE4C8F92205
:0E082800C3E49FFFE49EFEE49DFDE49CFC22E1
:0C083600ECF0A3EDF0A3EEF0A3EFF02235
:10084200A8828583F0D083D08212085912085912E7
:100852000859120859E473E493A3C583C5F0C5830C
:10086200C8C582C8F0A3C583C5F0C583C8C582C800
:010872002263
:10087300F8E0FBA3A3E0F925F0F0E582158270020E
:070883001583E0FA38F022B2
:09088A00EBF0A3EAF0A3E9F0226F
:10089300D083D082F8E4937012740193700DA3A3F4
:1008A30093F8740193F5828883E473740293686008
:0608B300EFA3A3A380DF08
:1008B900D083D082F8E4937012740193700DA3A3CE
:1008C90093F8740193F5828883E473740293B5F005
:0D08D900067403936860E9A3A3A3A380D86D
:1008E600EC8EF0A4CCC5F0CCCDF8EFA4CEC5F02D9F
:1008F600FDE43CFCE8A42EC8C5F03DFDE43CFCEF5D
:0D090600A4FFE5F028FEE43DFDE43CFC22EA
:00000001FF
