:03000000021CA837
:0C1CA800787FE4F6D8FD758122021CEF65
:101B8600206B65795F7363616E0D0A000D0A3D3D3A
:101B96003D3D3D3D3D3D3D3D3D3D3D3D3D3D3D3D6F
:101BA6003D3D3D3D3D3D3D3D3D3D3D3D3D3D3D3D5F
:101BB6000D0A00736B753A4B2564200D0A00736F8E
:101BC60066742076657273696F6E3A2573200D0A06
:101BD60000312E30302E30300067617020256420B1
:101BE6000D0A0074696D6572202564200D0A003D9A
:101BF6003D3D3D3D3D3D3D3D3D3D3D3D3D3D3D3D0F
:101C06003D3D3D3D3D3D3D3D3D3D3D3D3D3D3D3DFE
:041C16003D0D0A0076
:10172E004200B200004100B4004100B1004100B0DF
:01173E0000AA
:10000E00758E5390FE917401F090FF027410F022E1
:10103B00E4900000F09000B1E0700A121E419000A5
:10104B0000EFF08005E4900000F0900000E06401F8
:10105B0070699000A3E070637BFF7A1B798612089E
:10106B00E21225A0EF70107F011225A6122425E4B1
:10107B009000A4F002257F122558E4FF1225A6123A
:10108B001EC49000A6E0FFD394034016A3E0FE70AD
:10109B00059000958009EED394034006900086746A
:1010AB0002F09000B47401F0121C1A9000A6E0FF3D
:1010BB001215109000A7E0FF021D341225A0EF605F
:1010CB0003021176900000E0B4040312255890003F
:1010DB0000E06402704A1225589000A6E0C3940900
:1010EB005005E004F080069000A67401F09000A675
:1010FB00E0FFD394034016A3E0FE700590009580AB
:10110B0009EED3940340069000867402F09000B46D
:10111B007401F0121C1A9000A6E0FF121510804803
:10112B00900000E0640370431225589000A7E0C3C1
:10113B0094055005E004F08005E49000A7F09000C2
:10114B00A6E0D394034016A3E0FF700590009580B2
:10115B0009EFD3940340069000867402F09000A729
:0B116B00E0FF121D34121EC412235EB0
:011176002256
:0817F700900006EEF0A3EFF0F4
:1017FF00900081E06402706A9000A3E0640170625F
:10180F00900006A3E0FFE4900081F09000AA04F09E
:10181F00900062E0FED3940F4048EED39F400CE05F
:10182F009F9000A8F0A37401F08016900062E0FE74
:10183F00C3EF9EFF9000A8F01225739000A97402C9
:10184F00F09000A8E0FFC394024006EFD394144039
:10185F0007E49000A8F0A3F012235E7D027F02122E
:10186F0023E89000A9E0FDB401149000A8E0FF7EEA
:10187F0000900006EE8FF0120624AFF0FE22EDB4BA
:10188F0002189000A8E0FFC3900007E09FFF9000B0
:10189F0006E09400FEF0A3EFF022900006E0FEA316
:0218AF00E0FF58
:0118B1002214
:100CFA00900008ECF0A3EDF0900006EEF0FAA3EFF6
:020D0A00F0FBFC
:100D0C00E490000AF0A37432F0A3740AF0A3120763
:100D1C00A600000000C3EB9432EA94004016900049
:100D2C0008E0FEA3E0FF900006E0FCA3E0FDD39FEB
:100D3C00EC9E4003020DD3E4120342E4FBFA797AF1
:100D4C007844120227C004C005C006C007900008F2
:100D5C00E0FCA3E0FDE4120342E4FBFA797A784468
:100D6C00120227D003D002D001D000120029C004F7
:100D7C00C005C006C007900006E0FCA3E0FDE4122D
:100D8C000342E4FBFA797A7844120227E4FBFA79FD
:100D9C00FF7843120227A804A905AA06AB07D007BF
:100DAC00D006D005D00412022790000D12079AE449
:100DBC00FFFEFDFC90000DE0F8A3E0F9A3E0FAA320
:100DCC00E0FB1202C450057E007FFF2290000DE074
:100DDC00FCA3E0FDA3E0FEA3E0FF7BF67A28799C60
:100DEC00784012022790000D12079AE4FFFE7D92C4
:100DFC007C4290000DE0F8A3E0F9A3E0FAA3E0FB3D
:100E0C001202C45004E4FEFF2290000DE0FCA3E0AB
:100E1C00FDA3E0FEA3E0FF7BF37A1F79B6784212C4
:100E2C00022790000D12079A7FF37E1F7DB67C423D
:100E3C0090000DE0F8A3E0F9A3E0FAA3E0FB1201A7
:100E4C001E7BF37A1F79B678421202C4504C900084
:100E5C000DE0FCA3E0FDA3E0FEA3E0FF7B497A9D3F
:100E6C007980783F12022790000D12079A90000AA1
:100E7C00E004F0E4FFFE7D807C3F90000DE0F8A3E1
:100E8C00E0F9A3E0FAA3E0FB1202C4600250BF90A9
:100E9C00000AE0FFA3E02FF0804E90000DE0FCA3D1
:100EAC00E0FDA3E0FEA3E0FF7B6D7AC5797E783F81
:100EBC0012022790000D12079A90000AE004F0E449
:100ECC00FFFE7D807C3F90000DE0F8A3E0F9A3E0ED
:100EDC00FAA3E0FB1202C440C190000BE0FF9000AB
:0F0EEC000AE0FEC3EF9EA3F090000BE0FF7E0034
:010EFB0022D4
:1012B200E4900000F0A3F0A3F0A3F0A3F0A3F09059
:1012C20000B3E004F070069000B2E004F0D39000A6
:1012D200B3E094109000B2E0942750030213E3E4C9
:1012E200F0A3F07B0190000904F0A37400F0A37452
:1012F20004F07A0079021213E4900002E0FEA3E007
:10130200FFA3E0FCA3E0FD120CFA900000EEF0A3B4
:10131200EFF01217F7900000EEF0A3EFF0D3900079
:1013220003E09432900002E0940050030213C212D0
:1013320025A0EF70579000B4E0B40133E4F0D390ED
:101342000001E09432900000E09400900089740261
:101352004009F09000907405F08014F09000A1E430
:10136200F0A37432F090008A7401F0900090F09033
:1013720000A7E0FF121D349000A6E0FF12151090A6
:101382000000E0FEA3E0FF121DBE802E9000A3E04D
:10139200B40118E49000A4F01224259000A6E0FF06
:1013A2001215109000B67401F0800FE49000A4F0C2
:1013B2007F0412247BE49000B6F0E49000B1F022A6
:1013C200E49000A3F09000B6F0122425E49000A46B
:1013D200F09000B074FFF0FF1215109000B174018C
:0113E200F01A
:0113E30022E7
:101AD70012000E1222E6122496D2AF1224431224C9
:101AE700FA120EFC1225581223377F207E03122488
:101AF700E31224257F0812151012257F7F02122575
:101B070066E49000A4F07BFF7A1B79921208E27BCF
:101B1700FF7A1B79B99000347423F0A3742BF01269
:101B270008E290003474FFF0A3741BF0A374D7F09D
:101B37007BFF7A1B79C41208E27BFF7A1B79DF905F
:101B470000A6E0FF900034E4F0A3EFF01208E27B78
:101B5700FF7A1B79E99000A7E0FF900034E4F0A337
:101B6700EFF01208E27BFF7A1B79F51208E21210F8
:0F1B77003B1212B21224B11220F81225B780EFE0
:1021F200900006EEF0A3EFF0C3E09D900006E09C95
:102202005006E49000A4F022900090E0FFC39000FA
:1022120007E09FFF900006E09400FEC3ED9FEC9E56
:0922220050069000A47401F022A2
:101DBE0090008AE0B40102806E9000A6E0B40A00A2
:101DCE005070901DD7F8282873021DF5021DFD02D4
:101DDE001E05021E0D021E15021E1D021E25021ECE
:101DEE002D021E2D021E35AD07AC067F1E803EADA8
:101DFE0007AC067F288036AD07AC067F2B802EAD54
:101E0E0007AC067F2F8026AD07AC067F36801EAD51
:101E1E0007AC067F3C8016AD07AC067F41800EAD49
:101E2E0007AC067F468006AD07AC067F4D7E0012DE
:031E3E0021F2226C
:1023C800900085E0B401189000A6E0D39403400F74
:1023D8007403F0FF12151012235EE4900085F022BA
:101628000D0A3D3D3D3D3D3D3D3D3D3D3D3D3D3D45
:101638003D3D3D3D3D3D3D3D3D3D3D3D3D3D3D3DD2
:101648003D3D3D3D3D3D3D3D3D3D0D0A00706F77C3
:101658006572206F6E20666C617368206761703AEE
:101668002564202074696D65723A2564200D0A008E
:10167800706F776572206F6E20666C617368207674
:10168800616C75653A256420207369676E3A256434
:10169800200D0A003D3D3D3D3D3D3D3D3D3D3D3D2F
:1016A8003D3D3D3D3D3D3D3D3D3D3D3D3D3D3D3D62
:1016B8003D3D3D3D3D3D3D3D3D3D3D3D0D0A003DF2
:1016C8003D3D3D3D3D3D3D3D3D3D3D3D6669727382
:1016D8007420696E697420646174613D3D3D3D3DCF
:1016E8003D3D3D3D3D3D200D0A00307825303458C4
:1016F8002020307825303458202030782530345850
:101708002020307825303458200D0A00666C61732B
:1017180068206761703A2564202074696D65723AA3
:061728002564200D0A00FB
:10173F004500A600000000004400AB202005014139
:03174F0000AF01E7
:0625A0009000AFE0FF22F5
:0625A6009000AFEFF022EF
:10238400D310AF01C3C0D075FDF075FC0F8EFA8F6A
:10239400F975FDD275FC2D75FDE175FC1ED0D0924A
:0223A400AF2266
:10230F00D310AF01C3C0D08FFB75FDF075FC0FAEBE
:10231F0004AF058EFA8FF975FDB475FC4B75FDE1B1
:08232F0075FC1ED0D092AF2214
:0C1F37007B017A0079A67D057F047E3CCA
:101F4300D310AF01C3C0D0900008EEF0A3EFF0A30D
:0B1F5300EDF0A3EBF0A3EAF0A3E9F02F
:101F5E00E4A3F0C2AFF090000AE0FF90000EE0C3E1
:101F6E009F502C90000BE0FBA3E475F00112063A93
:101F7E00A9F0FA120577FF900008E475F001120639
:101F8E003AADF0FC12230F90000EE004F080C7D2A1
:011F9E00AF93
:051F9F00D0D092AF223A
:040003008F828E83D7
:03000700E493FF80
:01000A0022D3
:1020B800900008EEF0A3EFF0A3EBF0A3EAF0A3E999
:1020C800F0AF051DEF6028900008E475F0011206D6
:1020D8003A85F082F583E493FF90000AE0FBA3E4DD
:1020E80075F00112063AA9F0FAEF1205BD80D22266
:10222B00E4FDFCED2400FFE4343CFE12000374AB30
:10223B002DF582E43400F583E0B507030C80037FB2
:10224B0000220DEDB404DCECC3940440037F0122A7
:02225B007F0002
:01225D00225E
:100EFC00E4900000F090FE927404F012222BEF703C
:100F0C000790000004F0807C7BFF7A167928120889
:100F1C00E27B017A0079A67D057F047E3C1220B825
:100F2C007BFF7A1679559000A6E0FF900034E4F030
:100F3C00A3EFF09000A7E0FF900036E4F0A3EFF0F1
:100F4C001208E27BFF7A1679789000A8E0FF9000F7
:100F5C0034E4F0A3EFF09000A9E0FF900036E4F049
:100F6C00A3EFF01208E27BFF7A16799C1208E2904C
:100F7C0000A6E0D394095006A3E094054006900027
:100F8C00007401F0900000E0640160030210187B13
:100F9C00FF7A1679C71208E29000A67401F0A374C8
:100FAC0003F07F007E3C1223847B017A0079AB7DB9
:100FBC0004121F43121F377B017A0079AB7D047F2B
:100FCC00007E3C1220B87BFF7A1679F29000ABE0E1
:100FDC00FF900034E4F0A3EFF09000ACE0FF900041
:100FEC0036E4F0A3EFF09000ADE0FF900038E4F0B1
:100FFC00A3EFF09000AEE0FF90003AE4F0A3EFF026
:10100C001208E27BFF7A16799C1208E27BFF7A17B2
:10101C0079149000A6E0FF900034E4F0A3EFF09078
:0F102C0000A7E0FF900036E4F0A3EFF00208E227
:10235E007F047E3C1223847B017A0079AB7D047F5F
:10236E0000121F43121F377B017A0079A67D057F6D
:06237E00047E3C0220B8C1
:0E253C00EF1F70011E144E6004000080F32299
:1024E3007DA07C01ED1D70011C144C70F7EF1F7073
:0624F300011E144E70EA08
:0124F90022C0
:0325BB0002253CBA
:1024600090FF0974C1F090FF08F090FF07F090FF13
:0B24700006F0D291D290D287D28622D3
:08213800900034EFF0A3EDF07C
:10214000E4A3F0F0900035E0FFA3E0C39F5027C266
:1021500087900034E020E704C2868002D286D287CE
:102160007F057E001225BB900034E025E0F0900052
:0621700036E004F080CE11
:012176002246
:08217700900034EFF0A3EDF03D
:10217F00E4A3F0F0900035E0FFA3E0C39F5027C227
:10218F0087900034E020E004C2868002D286D28796
:10219F007F057E001225BB900034E0C313F0900042
:0621AF0036E004F080CED2
:0121B5002207
:10247B00900007EFF0C2917D047F8012213890000D
:0B248B0007E0FF7D08122138D29122EB
:1022BA00900032EFF0A3EDF0C2917D037FA01221CE
:1022CA0038900032E025E025E0FF7D0612213890A3
:0C22DA000033E0FF7D04122177D2912236
:09259700D291D290D287D28622A3
:081752004100B5004100B600A2
:05001E007F0602247BB7
:0525B2007F0402247B00
:10240700E4900000F0F0900000E0FFC39420500D2E
:0D2417007D0F1222BA900000E004F080E971
:012424002295
:10242500E4900031F0F0900031E0FFC39420500DAE
:0D243500E4FD1222BA900031E004F080E9CD
:012442002277
:102337001224607F5212247B7F3012247B7F0A1283
:10234700247B7F0812247B7F0212247B7F061224C2
:072357007B1224250224077C
:0E254A00E4FD7F1C1222BAE4FD7F1F0222BABC
:101D3400900006EFF07F0612247BE4FD7F1F122241
:101D4400BAE4FD7F1C1222BA900006E014601B1452
:101D5400602314602B14603A1460492405705A7D82
:101D64000A7F1B1222BA7D0E80317D0B7F1B12224B
:101D7400BA7D0A80267D0E7F1B1222BA7D0A801B43
:101D84007D0A7F1B1222BA7D0A7F1C1222BA7D0BA8
:101D940080227D0A7F1B1222BA7D0B7F1C1222BA7D
:101DA4007D0A80107D0A7F1B1222BA7D0A7F1C12D5
:0A1DB40022BA7D0E7F1F1222BA2210
:10151000900006EFF07F0612247BE4FD7F1D12226F
:10152000BAE4FD7F1E1222BA9000B6E06401702377
:101530009000B5E070157D067F1D1222BA7D0E7FEA
:101540001E1222BA9000B57401F022E49000B5F0AA
:1015500002161A900006E0B401047D068063900034
:1015600006E0B4020B7D0B7F1D1222BA7D0C806554
:10157000900006E0B4030B7D0F7F1D1222BA7D049C
:101580008053900006E0B4040B7D067F1D1222BA42
:101590007D068041900006E0B4050B7D0D7F1D1295
:1015A00022BA7D06802F900006E0B4060B7D0D7FE9
:1015B0001D1222BA7D0E801D900006E0B407067D44
:1015C000077F1D805F900006E0B4080D7D0F7F1D32
:1015D0001222BA7D0E7F1E804B900006E0B4090DEA
:1015E0007D0F7F1D1222BA7D067F1E803790000678
:1015F000E0F470339000B5E070177D017F1D12227A
:10160000BA7D0E7F1E1222BA9000B57401F0022539
:1016100058E49000B5F012257FE4FD7F1C1222BA39
:08162000E4FD7F1F1222BA2233
:10175A005E006300000000000000000000000000BE
:10176A00000000000000000000000000000000006F
:09177A0000410081004100620001
:1022E60090FF0E74C1F090FF0F7461F090FFA07420
:1022F60016F090FFA104F075CEFF75CDE675CC06FD
:09230600759E02759810D2AC22FC
:0C257300C2AC8F993099FDC299D2AC2205
:0325BE0002257380
:0B228D0090000DEBF0A3EAF0A3E9F0D5
:10229800E4FEEEC39D501A90000DE0FBA3E0FAA304
:1022A800E0F98E82758300120590FF1225BE0E801C
:0122B800E144
:0122B9002202
:1023E8009000087455F0A3EFF0A3EDF0A3740DF07E
:0F23F800A3740AF07B017A0079087D0502228D1B
:0625AC00AE0712257322A8
:0300230002206B4D
:0D206B00C0E0C083C082C0D075D000C007A7
:10207800E59830E030AF995398FE900081E0146005
:1020880019047021EFB4551D900063F0900061E0D1
:1020980004F09000817401F0800B900062EFF090E2
:0520A80000817402F04C
:0B20AD00D007D0D0D082D083D0E0322A
:101783004100A3004100A5004100A4004200A100C4
:1017930032420098000041009A0042009B00004141
:0C17A300009D0042009E00004100A001DB
:1024430090FF1D7461F090FF15F090FF16F090FF60
:0D24530002F090FF1774C1F090FF00F0221E
:1024B1002082099000A5E0700304F0229000A5E0BD
:0A24C100B401063082037402F02219
:1020F8009000A4E064017035A3E0B4023290009827
:10210800E475F001120624FEC39000A2E095F09059
:1021180000A1E09E5019E4900098F0A3F0D2807FCF
:0F21280006FE1224E3C280E49000A5F022C280DC
:012137002285
:1018B200E4900002F0A2A533900001F090009AE0BB
:1018C20014602614604E1470030219552403600339
:1018D20002195E900001E0600302196390009BF020
:1018E200A3F090009A04F08078900001E0706B9071
:1018F200009CE004F0700690009BE004F0C39000AE
:101902009CE0940390009BE09400403E90009A7407
:1019120002F08036900001E0B40106A37404F08066
:101922003B90009CE004F0700690009BE004F0C342
:1019320090009CE0947890009BE09400400C900012
:10194200027405F090009A7403F07F0A7E0012245C
:10195200E3800E900001E0B401078000E490009A59
:06196200F0900002E0FF1E
:01196800225C
:10196900E4900002F0A2A633900001F090009DE0FF
:1019790014602614604E147003021A0C24036003C9
:10198900021A15900001E06003021A1A90009EF0F5
:10199900A3F090009D04F08078900001E0706B90B6
:1019A900009FE004F0700690009EE004F0C39000F0
:1019B9009FE0940390009EE09400403E90009D7447
:1019C90002F08036900001E0B40106A37404F080AF
:1019D9003B90009FE004F0700690009EE004F0C385
:1019E90090009FE094F090009EE09400400C9000DD
:1019F900027406F090009D7403F07F0A7E001224A1
:101A0900E3800E900001E0B401078000E490009D9E
:061A1900F0900002E0FF66
:011A1F0022A4
:101E41001218B2BF05037F01229000A0E0601220AA
:101E5100A50F7F327E001224E3E49000A0F07F04FE
:101E610022121969BF06211225A0BF01149000AAF0
:101E7100E0700E9000A304F09000AAF012235E809F
:101E81003FE49000A3F080389000A0E0602330A6EA
:101E91000320B51D9000A3E070177F32FE1224E3EA
:101EA100E49000A0F020A6037F032220B5127F0258
:101EB1002230A60C30B50930A5069000A07401F0BF
:021EC1007F00A0
:011EC30022FC
:101A200065786368616E67655F686561745F76613C
:101A30006C7565200D0A0070726F74656374200DFB
:101A40000A0074696D65206F6666200D0A0074696E
:101A50006D655F746F5F302E3548202074696D6549
:101A60005F7365633D2564200D0A0074696D655FD1
:101A7000746F5F3148202074696D655F7365633DE5
:101A80002564200D0A0074696D655F746F5F3248CC
:101A9000202074696D655F7365633D2564200D0AC0
:101AA0000074696D655F746F5F3448202074696DE0
:101AB000655F7365633D2564200D0A0074696D657B
:101AC0005F746F5F3848202074696D655F7365636C
:071AD0003D2564200D0A0012
:1017AF0041008F0042008D00004200910000410077
:1017BF0085004100860041009500410090004100E6
:1017CF008900420087000042008B00004200830026
:1017DF000041008A00420093000042009600004141
:0317EF0000820075
:0E2558009000827401F0E4900096F0A3F0224F
:0C257F00E4900082F0900096F0A3F0229F
:10225E00900082E0B40125D2A7900096E475F001BB
:10226E00120624FED3E5F0942CEE94014010C2A782
:0F227E00E4900082F0900096F0A3F022C2A72215
:0C258B0090008DEEF0A3EFF0E4A3F0222E
:101C1A00EFB40A004003021CA7901C2AF828287374
:101C2A00021C48021C52021C5C021C66021C710245
:101C3A001C7C021C87021C92021C9D021C9D9000A7
:101C4A0083E4F0A3741EF022900083E4F0A3749658
:101C5A00F022900083E4F0A374F0F02290008374E1
:101C6A0001F0A3742CF0229000837401F0A374682D
:101C7A00F0229000837401F0A374A4F022900083F0
:101C8A007402F0A37494F0229000837403F0A37496
:0E1C9A00FCF0229000837406F0A37454F02234
:10200E009000A1E4F0A37432F09000A6E0B40A00B0
:10201E00504A902027F828287302204502204702B4
:10202E00204902204B02205202205902205B02203E
:10203E005D02206402206480048002800090009083
:10204E007401F0229000907403F0228002800090C0
:0D205E0000907405F0229000907408F022AC
:1021B600900089E0B40234900087E475F0011206BD
:1021C60024FEC3900084E095F0900083E09E501BAF
:1021D6007BFF7A1A79201208E2E4900089F09000D9
:0C21E60087F0A3F090008AF012200E2277
:101EC400E490008FF09000A7E0FF700890008DF080
:101ED400A3F08052EFB4010C90008D7407F0A304BA
:101EE400F0E48042EFB4020D90008D740EF0A37400
:101EF40010F0E48031EFB4030D90008D741CF0A356
:101F04007420F0E48020EFB4040D90008D7438F058
:101F1400A37440F0E4800FEFB4051790008D747043
:101F2400F0A37480F0E4900091F0A3F090008BF0A3
:031F3400A3F022F5
:1024FA00E490FE80F0F589758CF2758AFBC28DD264
:06250A00A9D28CD2AF2221
:03000B0002117768
:10117700C0E0C0F0C083C082C0D075D000C000C03E
:1011870001C002C003C004C005C006C00712225E2A
:101197001225A0EF600302127090008FE004F0E0C8
:1011A700C3946450030212971221B6900095E0B4DD
:1011B700022D900092E004F07006900091E004F098
:1011C700D3900092E09420900091E0941C401090FE
:1011D7000095E4F0900091F0A3F090008504F0D31F
:1011E70090008EE0940090008DE094004048A3E0CA
:1011F70024FFF090008DE034FFF0900086E0640259
:101207007060900092E004F07006900091E004F0A6
:10121700D3900092E09420900091E0941C4043907A
:1012270000857401F0A3E4F0900091F0A3F07BFF38
:101237007A1A793780299000A7E060267F01122566
:10124700A690008DE4F0A3F0900091F0A3F0900039
:1012570086F0900095F01224257BFF7A1A794212C6
:1012670008E290008FE4F080279000A3E0B401200B
:10127700900093E475F001120624FED3E5F094E0A4
:10128700EE942E400B9000A3E4F0900093F0A3F0AF
:10129700D007D006D005D004D003D002D001D000AB
:0B12A700D0D0D082D083D0F0D0E03255
:101FA40090008BE475F001120624FEE5F08EF01229
:101FB400081D1FCE07081FD60E101FDE1C201FE6AB
:101FC40038401FEE70800000200D7BFF7A1A794E96
:101FD400801E7BFF7A1A796B80167BFF7A1A7986CA
:101FE400800E7BFF7A1A79A180067BFF7A1A79BC6E
:101FF40090008DE0FFA3E0900034CFF0A3EFF01247
:0A20040008E2E490008BF0A3F02244
:0417F2004100B700FB
:1024CB007E009000B7E0FD7C0012084AE47B64FAC2
:0724DB00F9F81206FA8FDF89
:0124E20022D7
:1023A60090FF0074C1F0E490FF9CF0AC06AD077E90
:1023B6007A7F121205CFEF149000B7F0F5DE75DDC7
:0223C60097225C
:1024960090FF017401F090FF03F075B4807F147E05
:0B24A6000012253C90FE9B7449F022C0
:10251000E4FFFE75B50143B440E5B430E5FB53B4C8
:05252000DFAEB7AFB60D
:012525002293
:10252600E4FFFE75B50343B440E5B430E5FB53B4B0
:05253600DFAEB7AFB6F7
:01253B00227D
:0B13E400900006EBF0A3EAF0A3E9F094
:1013EF0090000C1207A600000000E4900010F0F02F
:1013FF0090000CE0F8A3E0F9A3E0FAA3E0FB1225BC
:10140F0010E4FCFDEB2FFFEA3EFEED39FDEC38FC5E
:10141F0090000C12079A900010E004F0E0C39405BE
:10142F0040CE90000CE0FCA3E0FDA3E0FEA3E0FFA4
:10143F00E47B05FAF9F81206FA90000C12079AE409
:10144F007F887E13FDFC90000CE0F8A3E0F9A3E089
:10145F00FAA3E0FB12066FE4FB7A10F9F81206FA12
:10146F00900006E0FBA3E0FAA3E0F9EE8FF012067E
:10147F005090000C1207A600000000E4900010F03E
:10148F0090000CE0F8A3E0F9A3E0FAA3E0FB12252B
:10149F0026E4FCFDEB2FFFEA3EFEED39FDEC38FCB8
:1014AF0090000C12079A900010E004F0E0C394052E
:1014BF0040CE90000CE0FCA3E0FDA3E0FEA3E0FF14
:1014CF00E47B05FAF9F81206FA90000C12079AE479
:1014DF007F887E13FDFC90000CE0F8A3E0F9A3E0F9
:1014EF00FAA3E0FB12066FE4FB7A10F9F81206FA82
:1014FF00900009E0FBA3E0FAA3E0F9EE8FF00206FB
:01150F00508B
:0D25660075BD17EF75F02BA490FEA0F022BC
:0425B70043BD1022EE
:100026000203B0E86480F8E933E83360110460F055
:10003600ED33EC337009E8FCE9FDEAFEEBFF220440
:1000460060DED3EB9FEA9EE99DE8C2E78CF0C2F73B
:1000560095F0400CE8CCF8E9CDF9EACEFAEBCFFB07
:1000660012037B85D0F05804700320D5B3E80470E2
:10007600075002B2D50203BA92D5EC0460F7E4CC7D
:10008600C0E0C398F8603B94186008400DD0E0FBD0
:10009600020392E4FBFAC9FC8028E830E406E4C9CE
:1000A600FBE4CAFCE830E305E4C9CACBFCE8540724
:1000B6006010F8C3E913F9EA13FAEB13FBEC13FC2F
:1000C600D8F130F52FC3E49CFCEF9BFFEE9AFEEDD2
:1000D60099FDD0E0FBEF4E4D4C701222DB0302037C
:1000E600B7EC2CFCEF33FFEE33FEED33FDED30E7DE
:1000F600EB020392EF2BFFEE3AFEED39FDD0E0FB6B
:1001060050130BBB00030203BAED13FDEE13FEEF13
:0801160013FFEC13FC0203923D
:10011E00EC4D6011E8497017ED33EC3304600DE4DB
:10012E00FCFFFEFD22E933E8330470F80203B0123F
:10013E00037B58046009E4CC248150062850090240
:10014E0003BA2840030203B7C0E0EB4A7044B980FB
:10015E0006D0E0FB0203A6EF4E701CBD8008EBFF3D
:10016E00EAFEE9FD80EBE98DF0A4FEE5F002020760
:10017E00E9CDF9EAFEEBFFEF89F0A4FCE5F0CE89BC
:10018E00F0A42EFFE435F0CD89F0A42DFEE435F079
:10019E008067EF4E7005BD80D780C3EF8BF0A4ACA7
:1001AE00F0EE8BF0A42CFCE435F0F8EF8AF0A42CE2
:1001BE00E5F038FCE433CB8DF0A42CFCE5F03BF8F5
:1001CE00EE8AF0A42CFCE5F038F8E433CF89F0A4E5
:1001DE002CFCE5F038CF3400CE89F0A42FFFE5F0EB
:1001EE003EFEE433C98DF0A42EFEE5F039CD8AF043
:1001FE00A42FFFE5F03EFEE43DFD33D0E0FB5007BB
:10020E000BBB000F0203BAEC2CFCEF33FFEE33FEF8
:06021E00ED33FD02039226
:100224000203BAEC5D046005E8590470030203B0EC
:1002340012037B580460F6EC4860F2EC7004FDFE97
:10024400FF22C860DB2481C85009C39860025006AD
:100254000203B79850CAF582E9294B4A7005AB826C
:100264000203A675F0007C1A7880C3EF9BEE9AED2A
:1002740099400DC3EF9BFFEE9AFEED99FDE842F025
:10028400DC23ACF0D0E0FFD0E0FED0E0FDAB822078
:10029400E7101BEB60BAEC2CFCEF33FFEE33FEED02
:1002A40033FD020392E803F830E705C0F075F0006F
:1002B400EF2FFFEE33FEED33FD40B830E7C280AAE6
:1002C40074F8CC6480CCC86480C8F58204604FC3E1
:1002D400EB9FF5F0EA9E42F0E99D42F0E89C45F080
:1002E400603C501DE5825FFFE582D313CB5BCBF40A
:1002F4002B5582FB50280ABA002409B90020088033
:100304001DE5825BFBE582D313CF5FCFF4C3132FCC
:100314005582FF50090EBE00050DBD00010CC3EB54
:100324009FF5F0EA9E42F0E99D42F0E89C45F060BA
:0903340007CC4820E701B3EC22DC
:10033D0075F020800E75F010800575F0087D007E3B
:10034D00007F003392D530D50312078CEC3340106B
:10035D00EF33FFEE33FEED33FDEC33FCD5F0ED2244
:0E036D00E5F0247EA2D513CC92E7CDCEFF2280
:10087700E50D2434F582E43400F583E0050D22907C
:100887000031301003900034E475F0011207D702ED
:1008970005772009E97F2ED2098018EF540F24909D
:1008A700D43440D4FF300D0BEF24BFB41A005003EB
:1008B7002461FFE50E6002150E0511E511700205B2
:1008C7001030100E900031E475F0011207D7EF02D7
:1008D70005BD0225AC7403D2108003E4C210F50DE8
:1008E7009000311207EEE4F50EF510F511E50E60F4
:1008F700077F201208BA80F5750FFFC20AC209C226
:100907000BC20CC20EC20FC211120886FF700D3047
:1009170010057F001208CBAF11AE1022B4255FC2BD
:10092700D5C20D120886FF24D0B40A00501A75F0FC
:100937000A780E30D50508B6FF0106C6A426F620AC
:10094700D5047002D20C80D924CFB41A00EF50041A
:10095700C2E5D20D020BBDD20A80C6D20980C0D231
:100967000B80BCD2D580BAD20E80B47F201208BAD1
:10097700200B077401B50E0040F1120877FF12082B
:10098700BA0208F4D211D20F8095120877FB120829
:1009970077FA120877F94A4B700679BB7A0C7BFF16
:1009A700200B2EE50E602A7E008E827583001205CD
:1009B7009060060EEE650F70F0C2D5EBC0E0EAC09E
:1009C700E0E9C0E0EE120C1ED0E0F9D0E0FAD0E08A
:1009D700FB120577FF60AAEBC0E0EAC0E0E9C0E0E0
:1009E7001208BAD0E02401F9D0E03400FAD0E0FBD5
:1009F700E50F0460DCD50FD98087D20B80A2120CDB
:100A07000060F7E50F7001041203C5A90F600DE53B
:100A17000F600914F50F120CA8EF60F3EA30E70234
:100A2700F404C3995079EAF4250F0430E701E4048C
:100A3700F50F800D120C0060C1EA050F250F120398
:100A4700C5EA900060F030E701E4250F04D50F04F4
:100A5700200E0114120C1EE4C0E0120CA8900060D6
:100A6700E0601320E70714F01208A2802204F0D0F8
:100A7700E014C0E07F001208A2E50F600712089992
:100A8700150F800B300E03120899D0E00208F4D03E
:100A9700E00480C4120C00609EE50F041203C590A9
:100AA7000060EAF0E50F200E026001042404120C36
:010AB7001E20
:100AB80074FF04C0E0120CA81208A2E50F200E0271
:100AC8006003120899D0E0B50FE87F451208AC9092
:100AD8000060E07F2B30E7047F2DF404C0E01208AB
:100AE800BAD0E075F00A84C0F01208A3D0E012086A
:100AF800A30208F4791080027908C20FC211800895
:100B0800D2D5790A8004790AC2D5E50F047002F5B6
:100B18000FE4FAFDFEFF120877FC7B08200A131287
:100B28000877FD7B1030090A120877FE120877FF54
:100B38007B20EC3382D592D55013C3E43009069F4D
:100B4800FFE49EFEE4200A039DFDE49CFCE4CBF850
:100B5800C20AEC700CCFCECDCCE824F8F870F38044
:100B680017C3EF33FFEE33FEED33FDEC33FCEB330D
:100B7800FB994002FB0FD8E9EB300A05F8D0E0C436
:100B880048B20AC0E00AEC4D4E4F78207B0070C294
:100B9800EAB50F0040BCC0E0120C20D0F0D0E02035
:100BA8000A04C4C0E0C4B20AC0F01208A3D0F0D549
:100BB800F0EB0208F41207F70991530AFC5809628E
:100BC8004C095E420B004F0B08440B084909774358
:100BD8000B0E550A3B460A9B450A05470CDB500994
:100BE800662D096A2E098D2B096E23098B200CC4EA
:100BF8002A09264800000985E50FB4FF03750F068A
:100C0800120877FC120877FD120877FE120877FFA2
:100C1800900059020402790AA2D5200C14300E095A
:100C2800B910020404B9080104A2D5200F0250012A
:100C380004200B68920BB50E005034C0E07F2030C2
:100C48000C197F30A20B720F720E500F120C77C264
:100C58000BC20FC20EC2117F30800F300E03E9C0E5
:100C6800E01208BA300E03D0E0F9D0E0B50ECC306F
:100C78000E177F30B9100C1208BA7F58300D077F55
:100C8800788003B908031208BA300B057F2D0208D3
:100C9800BA7F202011F87F2B200FF322920B80CFF0
:100CA8007F00B40700500B2459F582E43400F58323
:100CB800E0FF22286E756C6C2900D20A1208773082
:100CC8000AF8C20A780E30D50108F60209262D5016
:100CD8004349581208772403B405004001E4900CF6
:100CE800D6931208AB743A1208ABD20C750E0402F4
:020CF8000AFCF4
:10037B00E9D2E7C933E833F892D5EDD2E7CD33ECC8
:07038B0033FC5002B2D52241
:10039200EC30E7100FBF000C0EBE00080DBD0004CC
:1003A2000BEB6014A2D5EB13FCED92E7FD2274FF78
:1003B200FCFDFEFF22E480F8A2D574FF13FC7D80D1
:0303C200E480EFE5
:1003C500F920E73624F950037907E4F42402FBE524
:1003D50082158270021583DBF6E024FB501BE96071
:1003E50014E4F0E582158270021583E004F0B40A86
:0D03F50008E4F0D9EE7401F00A22C2D5220E
:10040200ED33EC3392D5FA602AB4FF33EDC2E77BC9
:10041200FF60067A047927E4227A04793020D50431
:100422007A04792B224E614E002B494E46002D490B
:100432004E4600E47A08F0A3DAFC7B00740722C07F
:1004420083C082ECC0E0EDC0E0EEC0E0EFC0E0EAC5
:1004520075F010A4CAABF075F04DA42BFBE435F097
:10046200FCEA2410FAEB34C5FBEC34D9FCEDC2E70C
:10047200FF75F056A4F42411C5F0F434C58FF0A42E
:100482002AE5F03BE43CF020E714120537D0E0FF08
:10049200D0E0FED0E0FDD0E0FC1202278014F4048C
:1004A200120537D0E0FFD0E0FED0E0FDD0E0FC1234
:1004B200011ED082D083E0FAEDD2E7CD33EC3324B3
:1004C20082FBE4C3CF33CFCE33CECD33CD33DBF398
:1004D2007B0775F00A846004F0A31B0AE5F0F0A321
:1004E2008FF0740AA4FFACF08EF0740AA42CFEAC58
:1004F200F050010C8DF0740AA42CFDE435F0F0A349
:05050200DBDE7407229E
:100507003F8000004120000042C80000447A0000FC
:10051700461C400047C35000497424004B1896807E
:100527004CBEBC205A0E1BCA6753C21C749DC5AE75
:10053700FB60065407601C2323120565EB543860E3
:100547000912055112056012011EECF8EDF9EEFAD9
:10055700EFCB22EB12056080F1543803241C900581
:1005670007FE93FC0EEE93FD0EEE930ECE93FF2245
:101CB400021AD7E493A3F8E493A34003F68001F255
:101CC40008DFF48029E493A3F85407240CC8C33331
:101CD400C4540F4420C8834004F456800146F6DF00
:101CE400E4800B010204081020408090172EE47E4B
:101CF400019360BCA3FF543F30E509541FFEE493F5
:101D0400A360010ECF54C025E060A840B8E493A3BB
:101D1400FAE493A3F8E493A3C8C582C8CAC583CAE6
:101D2400F0A3C8C582C8CAC583CADFE9DEE780BE9E
:0117F60000F2
:10057700BB010689828A83E0225002E722BBFE0282
:09058700E32289828A83E49322B5
:10059000BB010CE58229F582E5833AF583E0225020
:1005A00006E92582F8E622BBFE06E92582F8E2226A
:0D05B000E58229F582E5833AF583E4932284
:1005BD00BB010689828A83F0225002F722BBFE011D
:0205CD00F32217
:1005CF00BC000BBE0029EF8DF084FFADF022E4CC10
:1005DF00F875F008EF2FFFEE33FEEC33FCEE9DECD9
:1005EF00984005FCEE9DFE0FD5F0E9E4CEFD22ED1F
:1005FF00F8F5F0EE8420D21CFEADF075F008EF2F69
:10060F00FFED33FD4007985006D5F0F222C398FD59
:05061F000FD5F0EA22F6
:10062400C5F0F8A3E028F0C5F0F8E5821582700261
:060634001583E038F022FE
:10063A00A3F8E0C5F025F0F0E58215827002158373
:06064A00E0C838F0E822D0
:10065000BB010A89828A83F0E5F0A3F0225006F7F5
:0F06600009A7F01922BBFE06F3E5F009F31922F2
:10066F00E88FF0A4CC8BF0A42CFCE98EF0A42CFC2A
:10067F008AF0EDA42CFCEA8EF0A4CDA8F08BF0A4A8
:10068F002DCC3825F0FDE98FF0A42CCD35F0FCEB07
:10069F008EF0A4FEA9F0EB8FF0A4CFC5F02ECD39CC
:0F06AF00FEE43CFCEAA42DCE35F0FDE43CFC2239
:1006BE0075F008758200EF2FFFEE33FECD33CDCCF3
:1006CE0033CCC58233C5829BED9AEC99E582984076
:1006DE000CF582EE9BFEED9AFDEC99FC0FD5F0D653
:1006EE00E4CEFBE4CDFAE4CCF9A88222B800C1B97D
:1006FE000059BA002DEC8BF084CFCECDFCE5F0CBBB
:10070E00F97818EF2FFFEE33FEED33FDEC33FCEBF3
:10071E0033FB10D703994004EB99FB0FD8E5E4F9AE
:10072E00FA227818EF2FFFEE33FEED33FDEC33FC9B
:10073E00C933C910D7059BE99A4007EC9BFCE99A8F
:10074E00F90FD8E0E4C9FAE4CCFB2275F010EF2FD4
:10075E00FFEE33FEED33FDCC33CCC833C810D707D4
:10076E009BEC9AE899400AED9BFDEC9AFCE899F80F
:0E077E000FD5F0DAE4CDFBE4CCFAE4C8F922A2
:0E078C00C3E49FFFE49EFEE49DFDE49CFC227E
:0C079A00ECF0A3EDF0A3EEF0A3EFF022D2
:1007A600A8828583F0D083D0821207BD1207BD12BE
:1007B60007BD1207BDE473E493A3C583C5F0C583E3
:1007C600C8C582C8F0A3C583C5F0C583C8C582C89D
:0107D6002200
:1007D700F8E0FBA3A3E0F925F0F0E58215827002AB
:0707E7001583E0FA38F0224F
:0907EE00EBF0A3EAF0A3E9F0220C
:1007F700D083D082F8E4937012740193700DA3A391
:1008070093F8740193F5828883E4737402936860A4
:06081700EFA3A3A380DFA4
:10081D00D083D082F8E4937012740193700DA3A36A
:10082D0093F8740193F5828883E473740293B5F0A1
:0D083D00067403936860E9A3A3A3A380D809
:10084A00EC8EF0A4CCC5F0CCCDF8EFA4CEC5F02D3B
:10085A00FDE43CFCE8A42EC8C5F03DFDE43CFCEFF9
:0D086A00A4FFE5F028FEE43DFDE43CFC2287
:00000001FF
