:03000000021C0BD4
:0C1C0B00787FE4F6D8FD758122021C529F
:101D21000D0A3D3D3D3D3D3D3D3D3D3D3D3D3D3D45
:101D31003D3D3D3D3D3D3D3D3D3D3D3D3D3D3D3DD2
:101D41003D3D3D3D0D0A00736B753A4B2564200DF9
:101D51000A00736F66742076657273696F6E3A2537
:101D610073200D0A00312E30302E30300067617043
:101D7100202564200D0A0074696D65722025642098
:101D81000D0A003D3D3D3D3D3D3D3D3D3D3D3D3D22
:101D91003D3D3D3D3D3D3D3D3D3D3D3D3D3D3D3D72
:081DA1003D3D3D3D3D0D0A00F2
:101725004200B200004100B4004100B1004100B0E8
:0117350000B3
:10000E00758E5390FE917401F090FF027410F022E1
:10117600E4900000F09000B1E0700A121E2C90007E
:1011860000EFF08005E4900000F0900000E06401BC
:1011960070609000A3E0705A12258BEF70107F01EB
:1011A600122591122410E49000A4F002256A12255B
:1011B60043E4FF122591121EAF9000A6E0FFD394E0
:1011C600034016A3E0FE70059000958009EED394C7
:1011D6000340069000867402F09000B47401F01289
:1011E6001B7D9000A6E0FF1215079000A7E0FF0206
:1011F6001C9712258BEF60030212A8900000E0B442
:101206000403122543900000E06402704A1225434D
:101216009000A6E0C394095005E004F08006900013
:10122600A67401F09000A6E0FFD394034016A3E055
:10123600FE70059000958009EED394034006900059
:10124600867402F09000B47401F0121B7D9000A623
:10125600E0FF1215078048900000E0640370431217
:1012660025439000A7E0C394055005E004F08005EF
:10127600E49000A7F09000A6E0D394034016A3E004
:10128600FF70059000958009EFD394034006900007
:10129600867402F09000A7E0FF121C97121EAF1290
:0212A6002349DA
:0112A8002223
:0817EE00900006EEF0A3EFF0FD
:1017F600900081E06402706A9000A3E06401706268
:10180600900006A3E0FFE4900081F09000AA04F0A7
:10181600900062E0FED3940F4048EED39F400CE068
:101826009F9000A8F0A37401F08016900062E0FE7D
:10183600C3EF9EFF9000A8F012255E9000A97402E7
:10184600F09000A8E0FFC394024006EFD394144042
:1018560007E49000A8F0A3F01223497D027F02124C
:1018660023D39000A9E0FDB401149000A8E0FF7E08
:1018760000900006EE8FF0120624AFF0FE22EDB4C3
:1018860002189000A8E0FFC3900007E09FFF9000B9
:1018960006E09400FEF0A3EFF022900006E0FEA31F
:0218A600E0FF61
:0118A800221D
:100CFA00900008ECF0A3EDF0900006EEF0FAA3EFF6
:020D0A00F0FBFC
:100D0C00E490000AF0A37432F0A3740AF0A3120763
:100D1C00A600000000C3EB9432EA94004016900049
:100D2C0008E0FEA3E0FF900006E0FCA3E0FDD39FEB
:100D3C00EC9E4003020DD3E4120342E4FBFA797AF1
:100D4C007844120227C004C005C006C007900008F2
:100D5C00E0FCA3E0FDE4120342E4FBFA797A784468
:100D6C00120227D003D002D001D000120029C004F7
:100D7C00C005C006C007900006E0FCA3E0FDE4122D
:100D8C000342E4FBFA797A7844120227E4FBFA79FD
:100D9C00FF7843120227A804A905AA06AB07D007BF
:100DAC00D006D005D00412022790000D12079AE449
:100DBC00FFFEFDFC90000DE0F8A3E0F9A3E0FAA320
:100DCC00E0FB1202C450057E007FFF2290000DE074
:100DDC00FCA3E0FDA3E0FEA3E0FF7BF67A28799C60
:100DEC00784012022790000D12079AE4FFFE7D92C4
:100DFC007C4290000DE0F8A3E0F9A3E0FAA3E0FB3D
:100E0C001202C45004E4FEFF2290000DE0FCA3E0AB
:100E1C00FDA3E0FEA3E0FF7BF37A1F79B6784212C4
:100E2C00022790000D12079A7FF37E1F7DB67C423D
:100E3C0090000DE0F8A3E0F9A3E0FAA3E0FB1201A7
:100E4C001E7BF37A1F79B678421202C4504C900084
:100E5C000DE0FCA3E0FDA3E0FEA3E0FF7B497A9D3F
:100E6C007980783F12022790000D12079A90000AA1
:100E7C00E004F0E4FFFE7D807C3F90000DE0F8A3E1
:100E8C00E0F9A3E0FAA3E0FB1202C4600250BF90A9
:100E9C00000AE0FFA3E02FF0804E90000DE0FCA3D1
:100EAC00E0FDA3E0FEA3E0FF7B6D7AC5797E783F81
:100EBC0012022790000D12079A90000AE004F0E449
:100ECC00FFFE7D807C3F90000DE0F8A3E0F9A3E0ED
:100EDC00FAA3E0FB1202C440C190000BE0FF9000AB
:0F0EEC000AE0FEC3EF9EA3F090000BE0FF7E0034
:010EFB0022D4
:1012A900E4900000F0A3F0A3F0A3F0A3F0A3F09062
:1012B90000B3E004F070069000B2E004F0D39000AF
:1012C900B3E094109000B2E0942750030213DAE4DB
:1012D900F0A3F07B0190000904F0A37400F0A3745B
:1012E90004F07A0079021213DB900002E0FEA3E019
:1012F900FFA3E0FCA3E0FD120CFA900000EEF0A3BE
:10130900EFF01217EE900000EEF0A3EFF0D390008B
:1013190003E09432900002E0940050030213B912E2
:10132900258BEF70579000B4E0B40133E4F0D3900B
:101339000001E09432900000E0940090008974026A
:101349004009F09000907405F08014F09000A1E439
:10135900F0A37432F090008A7401F0900090F0903C
:1013690000A7E0FF121C979000A6E0FF1215079056
:101379000000E0FEA3E0FF121DA9802E9000A3E06B
:10138900B40118E49000A4F01224109000A6E0FF24
:101399001215079000B67401F0800FE49000A4F0D4
:1013A9007F04122466E49000B6F0E49000B1F022C4
:1013B900E49000A3F09000B6F0122410E49000A489
:1013C900F09000B074FFF0FF1215079000B174019E
:0113D900F023
:0113DA0022F0
:101ACE0012000E1222D1122481D2AF12242E122411
:101ADE00E5120EFC1225431223227F207E031224D0
:101AEE00CE1224107F0812150712256A7F021225C6
:101AFE0051E49000A4F07BFF7A1D79211208E27B5D
:101B0E00FF7A1D79489000347423F0A3742BF012E1
:101B1E0008E290003474FFF0A3741DF0A37466F015
:101B2E007BFF7A1D79531208E27BFF7A1D796E9046
:101B3E0000A6E0FF900034E4F0A3EFF01208E27B81
:101B4E00FF7A1D79789000A7E0FF900034E4F0A3AF
:101B5E00EFF01208E27BFF7A1D79841208E212116F
:0F1B6E00761212A912249C1220E31225A280EFF6
:1021DD00900006EEF0A3EFF0C3E09D900006E09CAA
:1021ED005006E49000A4F022900090E0FFC3900010
:1021FD0007E09FFF900006E09400FEC3ED9FEC9E6C
:09220D0050069000A47401F022B7
:101DA90090008AE0B40102806E9000A6E0B40A00B7
:101DB9005070901DC2F8282873021DE0021DE80228
:101DC9001DF0021DF8021E00021E08021E10021E4E
:101DD90018021E18021E20AD07AC067F1E803EADFC
:101DE90007AC067F288036AD07AC067F2B802EAD69
:101DF90007AC067F2F8026AD07AC067F36801EAD67
:101E090007AC067F3C8016AD07AC067F41800EAD5E
:101E190007AC067F468006AD07AC067F4D7E0012F3
:031E290021DD2296
:1023B300900085E0B401189000A6E0D39403400F89
:1023C3007403F0FF121507122349E4900085F022ED
:10161F000D0A3D3D3D3D3D3D3D3D3D3D3D3D3D3D4E
:10162F003D3D3D3D3D3D3D3D3D3D3D3D3D3D3D3DDB
:10163F003D3D3D3D3D3D3D3D3D3D0D0A00706F77CC
:10164F006572206F6E20666C617368206761703AF7
:10165F002564202074696D65723A2564200D0A0097
:10166F00706F776572206F6E20666C61736820767D
:10167F00616C75653A256420207369676E3A25643D
:10168F00200D0A003D3D3D3D3D3D3D3D3D3D3D3D38
:10169F003D3D3D3D3D3D3D3D3D3D3D3D3D3D3D3D6B
:1016AF003D3D3D3D3D3D3D3D3D3D3D3D0D0A003DFB
:1016BF003D3D3D3D3D3D3D3D3D3D3D3D666972738B
:1016CF007420696E697420646174613D3D3D3D3DD8
:1016DF003D3D3D3D3D3D200D0A00307825303458CD
:1016EF002020307825303458202030782530345859
:1016FF002020307825303458200D0A00666C617335
:10170F0068206761703A2564202074696D65723AAC
:06171F002564200D0A0004
:101736004500A600000000004400AB202005014142
:0317460000AF01F0
:06258B009000AFE0FF220A
:062591009000AFEFF02204
:10236F00D310AF01C3C0D075FDF075FC0F8EFA8F7F
:10237F00F975FDD275FC2D75FDE175FC1ED0D0925F
:02238F00AF227B
:1022FA00D310AF01C3C0D08FFB75FDF075FC0FAED4
:10230A0004AF058EFA8FF975FDB475FC4B75FDE1C6
:08231A0075FC1ED0D092AF2229
:0C1F22007B017A0079A67D057F047E3CDF
:101F2E00D310AF01C3C0D0900008EEF0A3EFF0A322
:0B1F3E00EDF0A3EBF0A3EAF0A3E9F044
:101F4900E4A3F0C2AFF090000AE0FF90000EE0C3F6
:101F59009F502C90000BE0FBA3E475F00112063AA8
:101F6900A9F0FA120577FF900008E475F00112064E
:101F79003AADF0FC1222FA90000EE004F080C7D2CC
:011F8900AFA8
:051F8A00D0D092AF224F
:040003008F828E83D7
:03000700E493FF80
:01000A0022D3
:1020A300900008EEF0A3EFF0A3EBF0A3EAF0A3E9AE
:1020B300F0AF051DEF6028900008E475F0011206EB
:1020C3003A85F082F583E493FF90000AE0FBA3E4F2
:1020D30075F00112063AA9F0FAEF1205BD80D2227B
:10221600E4FDFCED2400FFE4343CFE12000374AB45
:102226002DF582E43400F583E0B507030C80037FC7
:1022360000220DEDB404DCECC3940440037F0122BC
:022246007F0017
:012248002273
:100EFC00E4900000F090FE927404F0122216EF7051
:100F0C000790000004F0807C7BFF7A16791F120892
:100F1C00E27B017A0079A67D057F047E3C1220A33A
:100F2C007BFF7A16794C9000A6E0FF900034E4F039
:100F3C00A3EFF09000A7E0FF900036E4F0A3EFF0F1
:100F4C001208E27BFF7A16796F9000A8E0FF900000
:100F5C0034E4F0A3EFF09000A9E0FF900036E4F049
:100F6C00A3EFF01208E27BFF7A1679931208E29055
:100F7C0000A6E0D394095006A3E094054006900027
:100F8C00007401F0900000E0640160030210187B13
:100F9C00FF7A1679BE1208E29000A67401F0A374D1
:100FAC0003F07F007E3C12236F7B017A0079AB7DCE
:100FBC0004121F2E121F227B017A0079AB7D047F55
:100FCC00007E3C1220A37BFF7A1679E99000ABE0FF
:100FDC00FF900034E4F0A3EFF09000ACE0FF900041
:100FEC0036E4F0A3EFF09000ADE0FF900038E4F0B1
:100FFC00A3EFF09000AEE0FF90003AE4F0A3EFF026
:10100C001208E27BFF7A1679931208E27BFF7A17BB
:10101C00790B9000A6E0FF900034E4F0A3EFF09081
:0F102C0000A7E0FF900036E4F0A3EFF00208E227
:102349007F047E3C12236F7B017A0079AB7D047F89
:1023590000121F2E121F227B017A0079A67D057FAC
:06236900047E3C0220A3EB
:0E252700EF1F70011E144E6004000080F322AE
:1024CE007DA07C01ED1D70011C144C70F7EF1F7088
:0624DE00011E144E70EA1D
:0124E40022D5
:0325A600022527E4
:10244B0090FF0974C1F090FF08F090FF07F090FF28
:0B245B0006F0D291D290D287D28622E8
:08212300900034EFF0A3EDF091
:10212B00E4A3F0F0900035E0FFA3E0C39F5027C27B
:10213B0087900034E020E704C2868002D286D287E3
:10214B007F057E001225A6900034E025E0F090007C
:06215B0036E004F080CE26
:01216100225B
:08216200900034EFF0A3EDF052
:10216A00E4A3F0F0900035E0FFA3E0C39F5027C23C
:10217A0087900034E020E004C2868002D286D287AB
:10218A007F057E001225A6900034E0C313F090006C
:06219A0036E004F080CEE7
:0121A000221C
:10246600900007EFF0C2917D047F80122123900037
:0B24760007E0FF7D08122123D2912215
:1022A500900032EFF0A3EDF0C2917D037FA01221E3
:1022B50023900032E025E025E0FF7D0612212390E2
:0C22C5000033E0FF7D04122162D2912260
:09258200D291D290D287D28622B8
:081749004100B5004100B600AB
:05001E007F06022466CC
:05259D007F040224662A
:1023F200E4900000F0F0900000E0FFC39420500D44
:0D2402007D0F1222A5900000E004F080E99B
:01240F0022AA
:10241000E4900031F0F0900031E0FFC39420500DC3
:0D242000E4FD1222A5900031E004F080E9F7
:01242D00228C
:1023220012244B7F521224667F301224667F0A12D7
:1023320024667F081224667F021224667F06122416
:07234200661224100223F2D1
:0E253500E4FD7F1C1222A5E4FD7F1F0222A5FB
:101C9700900006EFF07F06122466E4FD7F1F1222F4
:101CA700A5E4FD7F1C1222A5900006E014601B141A
:101CB700602314602B14603A1460492405705A7D20
:101CC7000A7F1B1222A57D0E80317D0B7F1B1222FE
:101CD700A57D0A80267D0E7F1B1222A57D0A801B0B
:101CE7007D0A7F1B1222A57D0A7F1C1222A57D0B70
:101CF70080227D0A7F1B1222A57D0B7F1C1222A545
:101D07007D0A80107D0A7F1B1222A57D0A7F1C1287
:0A1D170022A57D0E7F1F1222A522D7
:10150700900006EFF07F06122466E4FD7F1D12228D
:10151700A5E4FD7F1E1222A59000B6E064017023AA
:101527009000B5E070157D067F1D1222A57D0E7F08
:101537001E1222A59000B57401F022E49000B5F0C8
:10154700021611900006E0B401047D068063900046
:1015570006E0B4020B7D0B7F1D1222A57D0C806572
:10156700900006E0B4030B7D0F7F1D1222A57D04BA
:101577008053900006E0B4040B7D067F1D1222A560
:101587007D068041900006E0B4050B7D0D7F1D129E
:1015970022A57D06802F900006E0B4060B7D0D7F07
:1015A7001D1222A57D0E801D900006E0B407067D62
:1015B700077F1D805F900006E0B4080D7D0F7F1D3B
:1015C7001222A57D0E7F1E804B900006E0B4090D08
:1015D7007D0F7F1D1222A57D067F1E803790000696
:1015E700E0F470339000B5E070177D017F1D122283
:1015F700A57D0E7F1E1222A59000B57401F002256D
:1016070043E49000B5F012256AE4FD7F1C1222A581
:08161700E4FD7F1F1222A52251
:101751005E006300000000000000000000000000C7
:101761000000000000000000000000000000000078
:091771000041008100410062000A
:1022D10090FF0E74C1F090FF0F7461F090FFA07435
:1022E10016F090FFA104F075CEFF75CDE675CC0612
:0922F100759E02759810D2AC2212
:0C255E00C2AC8F993099FDC299D2AC221A
:0325A90002255EAA
:0B22780090000DEBF0A3EAF0A3E9F0EA
:10228300E4FEEEC39D501A90000DE0FBA3E0FAA319
:10229300E0F98E82758300120590FF1225A90E8046
:0122A300E159
:0122A4002217
:1023D3009000087455F0A3EFF0A3EDF0A3740DF093
:0F23E300A3740AF07B017A0079087D0502227845
:06259700AE0712255E22D2
:0300230002205662
:0D205600C0E0C083C082C0D075D000C007BC
:10206300E59830E030AF995398FE900081E014601A
:1020730019047021EFB4551D900063F0900061E0E6
:1020830004F09000817401F0800B900062EFF090F7
:0520930000817402F061
:0B209800D007D0D0D082D083D0E0323F
:10177A004100A3004100A5004100A4004200A100CD
:10178A0032420098000041009A0042009B0000414A
:0C179A00009D0042009E00004100A001E4
:10242E0090FF1D7461F090FF15F090FF16F090FF75
:0D243E0002F090FF1774C1F090FF00F02233
:10249C002082099000A5E0700304F0229000A5E0D2
:0A24AC00B401063082037402F0222E
:1020E3009000A4E064017035A3E0B402329000983C
:1020F300E475F001120624FEC39000A2E095F0906F
:1021030000A1E09E5019E4900098F0A3F0D2807FE4
:0F21130006FE1224CEC280E49000A5F022C28006
:01212200229A
:1018A900E4900002F0A2A533900001F090009AE0C4
:1018B90014602614604E14700302194C240360034B
:1018C900021955900001E0600302195A90009BF03B
:1018D900A3F090009A04F08078900001E0706B907A
:1018E900009CE004F0700690009BE004F0C39000B7
:1018F9009CE0940390009BE09400403E90009A7411
:1019090002F08036900001E0B40106A37404F0806F
:101919003B90009CE004F0700690009BE004F0C34B
:1019290090009CE0947890009BE09400400C90001B
:10193900027405F090009A7403F07F0A7E00122465
:10194900CE800E900001E0B401078000E490009A77
:06195900F0900002E0FF27
:01195F002265
:10196000E4900002F0A2A633900001F090009DE008
:1019700014602614604E147003021A0324036003DB
:10198000021A0C900001E06003021A1190009EF010
:10199000A3F090009D04F08078900001E0706B90BF
:1019A000009FE004F0700690009EE004F0C39000F9
:1019B0009FE0940390009EE09400403E90009D7450
:1019C00002F08036900001E0B40106A37404F080B8
:1019D0003B90009FE004F0700690009EE004F0C38E
:1019E00090009FE094F090009EE09400400C9000E6
:1019F000027406F090009D7403F07F0A7E001224AA
:101A0000CE800E900001E0B401078000E490009DBC
:061A1000F0900002E0FF6F
:011A160022AD
:101E2C001218A9BF05037F01229000A0E0601220C8
:101E3C00A50F7F327E001224CEE49000A0F07F0428
:101E4C0022121960BF062112258BBF01149000AA23
:101E5C00E0700E9000A304F09000AAF012234980C9
:101E6C003FE49000A3F080389000A0E0602330A6FF
:101E7C000320B51D9000A3E070177F32FE1224CE14
:101E8C00E49000A0F020A6037F032220B5127F026D
:101E9C002230A60C30B50930A5069000A07401F0D4
:021EAC007F00B5
:011EAE002211
:101A170065786368616E67655F686561745F766145
:101A27006C7565200D0A0070726F74656374200D04
:101A37000A0074696D65206F6666200D0A00746977
:101A47006D655F746F5F302E3548202074696D6552
:101A57005F7365633D2564200D0A0074696D655FDA
:101A6700746F5F3148202074696D655F7365633DEE
:101A77002564200D0A0074696D655F746F5F3248D5
:101A8700202074696D655F7365633D2564200D0AC9
:101A97000074696D655F746F5F3448202074696DE9
:101AA700655F7365633D2564200D0A0074696D6584
:101AB7005F746F5F3848202074696D655F73656375
:071AC7003D2564200D0A001B
:1017A60041008F0042008D00004200910000410080
:1017B60085004100860041009500410090004100EF
:1017C6008900420087000042008B0000420083002F
:1017D6000041008A0042009300004200960000414A
:0317E6000082007E
:0E2543009000827401F0E4900096F0A3F02264
:0C256A00E4900082F0900096F0A3F022B4
:10224900900082E0B40125D2A7900096E475F001D0
:10225900120624FED3E5F0942CEE94014010C2A797
:0F226900E4900082F0900096F0A3F022C2A7222A
:0C25760090008DEEF0A3EFF0E4A3F02243
:101B7D00EFB40A004003021C0A901B8DF82828734D
:101B8D00021BAB021BB5021BBF021BC9021BD402F9
:101B9D001BDF021BEA021BF5021C00021C00900059
:101BAD0083E4F0A3741EF022900083E4F0A37496F6
:101BBD00F022900083E4F0A374F0F022900083747F
:101BCD0001F0A3742CF0229000837401F0A37468CB
:101BDD00F0229000837401F0A374A4F0229000838E
:101BED007402F0A37494F0229000837403F0A37434
:0E1BFD00FCF0229000837406F0A37454F022D2
:101FF9009000A1E4F0A37432F09000A6E0B40A00C6
:10200900504A902012F82828730220300220320208
:10201900203402203602203D0220440220460220BC
:102029004802204F02204F800480028000900090D7
:102039007401F0229000907403F0228002800090D5
:0D20490000907405F0229000907408F022C1
:1021A100900089E0B40234900087E475F0011206D2
:1021B10024FEC3900084E095F0900083E09E501BC4
:1021C1007BFF7A1A79171208E2E4900089F09000F7
:0C21D10087F0A3F090008AF0121FF922A2
:101EAF00E490008FF09000A7E0FF700890008DF095
:101EBF00A3F08052EFB4010C90008D7407F0A304CF
:101ECF00F0E48042EFB4020D90008D740EF0A37415
:101EDF0010F0E48031EFB4030D90008D741CF0A36B
:101EEF007420F0E48020EFB4040D90008D7438F06E
:101EFF00A37440F0E4800FEFB4051790008D747059
:101F0F00F0A37480F0E4900091F0A3F090008BF0B8
:031F1F00A3F0220A
:1024E500E490FE80F0F589758CF2758AFBC28DD279
:0624F500A9D28CD2AF2237
:03000B0002103BA5
:10103B00C0E0C0F0C083C082C0D075D000C000C07B
:10104B0001C002C003C004C005C006C0071222497C
:10105B0012258BEF600302113490008FE004F0E057
:10106B00C39464500302115B1221A1900095E0B46C
:10107B00022D900092E004F07006900091E004F0D5
:10108B00D3900092E09420900091E0941C4010903B
:10109B000095E4F0900091F0A3F090008504F0D35C
:1010AB0090008EE0940090008DE094004048A3E007
:1010BB0024FFF090008DE034FFF0900086E0640296
:1010CB007060900092E004F07006900091E004F0E4
:1010DB00D3900092E09420900091E0941C404390B8
:1010EB0000857401F0A3E4F0900091F0A3F07BFF76
:1010FB007A1A792E80299000A7E060267F011225AD
:10110B009190008DE4F0A3F0900091F0A3F090008B
:10111B0086F0900095F01224107BFF7A1A79391221
:10112B0008E290008FE4F080279000A3E0B4012048
:10113B00900093E475F001120624FED3E5F094E0E1
:10114B00EE942E400B9000A3E4F0900093F0A3F0EC
:10115B00D007D006D005D004D003D002D001D000E8
:0B116B00D0D0D082D083D0F0D0E03292
:101F8F0090008BE475F001120624FEE5F08EF0123E
:101F9F00081D1FB907081FC10E101FC91C201FD114
:101FAF0038401FD9708000001FF87BFF7A1A7945DF
:101FBF00801E7BFF7A1A796280167BFF7A1A797DF1
:101FCF00800E7BFF7A1A799880067BFF7A1A79B395
:101FDF0090008DE0FFA3E0900034CFF0A3EFF0125C
:0A1FEF0008E2E490008BF0A3F0225A
:0417E9004100B70004
:1024B6007E009000B7E0FD7C0012084AE47B64FAD7
:0724C600F9F81206FA8FDF9E
:0124CD0022EC
:1023910090FF0074C1F0E490FF9CF0AC06AD077EA5
:1023A1007A7F121205CFEF149000B7F0F5DE75DDDC
:0223B100972271
:1024810090FF017401F090FF03F075B4807F147E1A
:0B2491000012252790FE9B7449F022EA
:1024FB00E4FFFE75B50143B440E5B430E5FB53B4DE
:05250B00DFAEB7AFB622
:0125100022A8
:10251100E4FFFE75B50343B440E5B430E5FB53B4C5
:05252100DFAEB7AFB60C
:012526002292
:0B13DB00900006EBF0A3EAF0A3E9F09D
:1013E60090000C1207A600000000E4900010F0F038
:1013F60090000CE0F8A3E0F9A3E0FAA3E0FB1224C6
:10140600FBE4FCFDEB2FFFEA3EFEED39FDEC38FC7C
:1014160090000C12079A900010E004F0E0C39405C7
:1014260040CE90000CE0FCA3E0FDA3E0FEA3E0FFAD
:10143600E47B05FAF9F81206FA90000C12079AE412
:101446007F887E13FDFC90000CE0F8A3E0F9A3E092
:10145600FAA3E0FB12066FE4FB7A10F9F81206FA1B
:10146600900006E0FBA3E0FAA3E0F9EE8FF0120687
:101476005090000C1207A600000000E4900010F047
:1014860090000CE0F8A3E0F9A3E0FAA3E0FB122534
:1014960011E4FCFDEB2FFFEA3EFEED39FDEC38FCD6
:1014A60090000C12079A900010E004F0E0C3940537
:1014B60040CE90000CE0FCA3E0FDA3E0FEA3E0FF1D
:1014C600E47B05FAF9F81206FA90000C12079AE482
:1014D6007F887E13FDFC90000CE0F8A3E0F9A3E002
:1014E600FAA3E0FB12066FE4FB7A10F9F81206FA8B
:1014F600900009E0FBA3E0FAA3E0F9EE8FF0020604
:011506005094
:0D25510075BD17EF75F02BA490FEA0F022D1
:0425A20043BD102203
:100026000203B0E86480F8E933E83360110460F055
:10003600ED33EC337009E8FCE9FDEAFEEBFF220440
:1000460060DED3EB9FEA9EE99DE8C2E78CF0C2F73B
:1000560095F0400CE8CCF8E9CDF9EACEFAEBCFFB07
:1000660012037B85D0F05804700320D5B3E80470E2
:10007600075002B2D50203BA92D5EC0460F7E4CC7D
:10008600C0E0C398F8603B94186008400DD0E0FBD0
:10009600020392E4FBFAC9FC8028E830E406E4C9CE
:1000A600FBE4CAFCE830E305E4C9CACBFCE8540724
:1000B6006010F8C3E913F9EA13FAEB13FBEC13FC2F
:1000C600D8F130F52FC3E49CFCEF9BFFEE9AFEEDD2
:1000D60099FDD0E0FBEF4E4D4C701222DB0302037C
:1000E600B7EC2CFCEF33FFEE33FEED33FDED30E7DE
:1000F600EB020392EF2BFFEE3AFEED39FDD0E0FB6B
:1001060050130BBB00030203BAED13FDEE13FEEF13
:0801160013FFEC13FC0203923D
:10011E00EC4D6011E8497017ED33EC3304600DE4DB
:10012E00FCFFFEFD22E933E8330470F80203B0123F
:10013E00037B58046009E4CC248150062850090240
:10014E0003BA2840030203B7C0E0EB4A7044B980FB
:10015E0006D0E0FB0203A6EF4E701CBD8008EBFF3D
:10016E00EAFEE9FD80EBE98DF0A4FEE5F002020760
:10017E00E9CDF9EAFEEBFFEF89F0A4FCE5F0CE89BC
:10018E00F0A42EFFE435F0CD89F0A42DFEE435F079
:10019E008067EF4E7005BD80D780C3EF8BF0A4ACA7
:1001AE00F0EE8BF0A42CFCE435F0F8EF8AF0A42CE2
:1001BE00E5F038FCE433CB8DF0A42CFCE5F03BF8F5
:1001CE00EE8AF0A42CFCE5F038F8E433CF89F0A4E5
:1001DE002CFCE5F038CF3400CE89F0A42FFFE5F0EB
:1001EE003EFEE433C98DF0A42EFEE5F039CD8AF043
:1001FE00A42FFFE5F03EFEE43DFD33D0E0FB5007BB
:10020E000BBB000F0203BAEC2CFCEF33FFEE33FEF8
:06021E00ED33FD02039226
:100224000203BAEC5D046005E8590470030203B0EC
:1002340012037B580460F6EC4860F2EC7004FDFE97
:10024400FF22C860DB2481C85009C39860025006AD
:100254000203B79850CAF582E9294B4A7005AB826C
:100264000203A675F0007C1A7880C3EF9BEE9AED2A
:1002740099400DC3EF9BFFEE9AFEED99FDE842F025
:10028400DC23ACF0D0E0FFD0E0FED0E0FDAB822078
:10029400E7101BEB60BAEC2CFCEF33FFEE33FEED02
:1002A40033FD020392E803F830E705C0F075F0006F
:1002B400EF2FFFEE33FEED33FD40B830E7C280AAE6
:1002C40074F8CC6480CCC86480C8F58204604FC3E1
:1002D400EB9FF5F0EA9E42F0E99D42F0E89C45F080
:1002E400603C501DE5825FFFE582D313CB5BCBF40A
:1002F4002B5582FB50280ABA002409B90020088033
:100304001DE5825BFBE582D313CF5FCFF4C3132FCC
:100314005582FF50090EBE00050DBD00010CC3EB54
:100324009FF5F0EA9E42F0E99D42F0E89C45F060BA
:0903340007CC4820E701B3EC22DC
:10033D0075F020800E75F010800575F0087D007E3B
:10034D00007F003392D530D50312078CEC3340106B
:10035D00EF33FFEE33FEED33FDEC33FCD5F0ED2244
:0E036D00E5F0247EA2D513CC92E7CDCEFF2280
:10087700E50D2434F582E43400F583E0050D22907C
:100887000031301003900034E475F0011207D702ED
:1008970005772009E97F2ED2098018EF540F24909D
:1008A700D43440D4FF300D0BEF24BFB41A005003EB
:1008B7002461FFE50E6002150E0511E511700205B2
:1008C7001030100E900031E475F0011207D7EF02D7
:1008D70005BD0225977403D2108003E4C210F50DFD
:1008E7009000311207EEE4F50EF510F511E50E60F4
:1008F700077F201208BA80F5750FFFC20AC209C226
:100907000BC20CC20EC20FC211120886FF700D3047
:1009170010057F001208CBAF11AE1022B4255FC2BD
:10092700D5C20D120886FF24D0B40A00501A75F0FC
:100937000A780E30D50508B6FF0106C6A426F620AC
:10094700D5047002D20C80D924CFB41A00EF50041A
:10095700C2E5D20D020BBDD20A80C6D20980C0D231
:100967000B80BCD2D580BAD20E80B47F201208BAD1
:10097700200B077401B50E0040F1120877FF12082B
:10098700BA0208F4D211D20F8095120877FB120829
:1009970077FA120877F94A4B700679BB7A0C7BFF16
:1009A700200B2EE50E602A7E008E827583001205CD
:1009B7009060060EEE650F70F0C2D5EBC0E0EAC09E
:1009C700E0E9C0E0EE120C1ED0E0F9D0E0FAD0E08A
:1009D700FB120577FF60AAEBC0E0EAC0E0E9C0E0E0
:1009E7001208BAD0E02401F9D0E03400FAD0E0FBD5
:1009F700E50F0460DCD50FD98087D20B80A2120CDB
:100A07000060F7E50F7001041203C5A90F600DE53B
:100A17000F600914F50F120CA8EF60F3EA30E70234
:100A2700F404C3995079EAF4250F0430E701E4048C
:100A3700F50F800D120C0060C1EA050F250F120398
:100A4700C5EA900060F030E701E4250F04D50F04F4
:100A5700200E0114120C1EE4C0E0120CA8900060D6
:100A6700E0601320E70714F01208A2802204F0D0F8
:100A7700E014C0E07F001208A2E50F600712089992
:100A8700150F800B300E03120899D0E00208F4D03E
:100A9700E00480C4120C00609EE50F041203C590A9
:100AA7000060EAF0E50F200E026001042404120C36
:010AB7001E20
:100AB80074FF04C0E0120CA81208A2E50F200E0271
:100AC8006003120899D0E0B50FE87F451208AC9092
:100AD8000060E07F2B30E7047F2DF404C0E01208AB
:100AE800BAD0E075F00A84C0F01208A3D0E012086A
:100AF800A30208F4791080027908C20FC211800895
:100B0800D2D5790A8004790AC2D5E50F047002F5B6
:100B18000FE4FAFDFEFF120877FC7B08200A131287
:100B28000877FD7B1030090A120877FE120877FF54
:100B38007B20EC3382D592D55013C3E43009069F4D
:100B4800FFE49EFEE4200A039DFDE49CFCE4CBF850
:100B5800C20AEC700CCFCECDCCE824F8F870F38044
:100B680017C3EF33FFEE33FEED33FDEC33FCEB330D
:100B7800FB994002FB0FD8E9EB300A05F8D0E0C436
:100B880048B20AC0E00AEC4D4E4F78207B0070C294
:100B9800EAB50F0040BCC0E0120C20D0F0D0E02035
:100BA8000A04C4C0E0C4B20AC0F01208A3D0F0D549
:100BB800F0EB0208F41207F70991530AFC5809628E
:100BC8004C095E420B004F0B08440B084909774358
:100BD8000B0E550A3B460A9B450A05470CDB500994
:100BE800662D096A2E098D2B096E23098B200CC4EA
:100BF8002A09264800000985E50FB4FF03750F068A
:100C0800120877FC120877FD120877FE120877FFA2
:100C1800900059020402790AA2D5200C14300E095A
:100C2800B910020404B9080104A2D5200F0250012A
:100C380004200B68920BB50E005034C0E07F2030C2
:100C48000C197F30A20B720F720E500F120C77C264
:100C58000BC20FC20EC2117F30800F300E03E9C0E5
:100C6800E01208BA300E03D0E0F9D0E0B50ECC306F
:100C78000E177F30B9100C1208BA7F58300D077F55
:100C8800788003B908031208BA300B057F2D0208D3
:100C9800BA7F202011F87F2B200FF322920B80CFF0
:100CA8007F00B40700500B2459F582E43400F58323
:100CB800E0FF22286E756C6C2900D20A1208773082
:100CC8000AF8C20A780E30D50108F60209262D5016
:100CD8004349581208772403B405004001E4900CF6
:100CE800D6931208AB743A1208ABD20C750E0402F4
:020CF8000AFCF4
:10037B00E9D2E7C933E833F892D5EDD2E7CD33ECC8
:07038B0033FC5002B2D52241
:10039200EC30E7100FBF000C0EBE00080DBD0004CC
:1003A2000BEB6014A2D5EB13FCED92E7FD2274FF78
:1003B200FCFDFEFF22E480F8A2D574FF13FC7D80D1
:0303C200E480EFE5
:1003C500F920E73624F950037907E4F42402FBE524
:1003D50082158270021583DBF6E024FB501BE96071
:1003E50014E4F0E582158270021583E004F0B40A86
:0D03F50008E4F0D9EE7401F00A22C2D5220E
:10040200ED33EC3392D5FA602AB4FF33EDC2E77BC9
:10041200FF60067A047927E4227A04793020D50431
:100422007A04792B224E614E002B494E46002D490B
:100432004E4600E47A08F0A3DAFC7B00740722C07F
:1004420083C082ECC0E0EDC0E0EEC0E0EFC0E0EAC5
:1004520075F010A4CAABF075F04DA42BFBE435F097
:10046200FCEA2410FAEB34C5FBEC34D9FCEDC2E70C
:10047200FF75F056A4F42411C5F0F434C58FF0A42E
:100482002AE5F03BE43CF020E714120537D0E0FF08
:10049200D0E0FED0E0FDD0E0FC1202278014F4048C
:1004A200120537D0E0FFD0E0FED0E0FDD0E0FC1234
:1004B200011ED082D083E0FAEDD2E7CD33EC3324B3
:1004C20082FBE4C3CF33CFCE33CECD33CD33DBF398
:1004D2007B0775F00A846004F0A31B0AE5F0F0A321
:1004E2008FF0740AA4FFACF08EF0740AA42CFEAC58
:1004F200F050010C8DF0740AA42CFDE435F0F0A349
:05050200DBDE7407229E
:100507003F8000004120000042C80000447A0000FC
:10051700461C400047C35000497424004B1896807E
:100527004CBEBC205A0E1BCA6753C21C749DC5AE75
:10053700FB60065407601C2323120565EB543860E3
:100547000912055112056012011EECF8EDF9EEFAD9
:10055700EFCB22EB12056080F1543803241C900581
:1005670007FE93FC0EEE93FD0EEE930ECE93FF2245
:101C1700021ACEE493A3F8E493A34003F68001F2FB
:101C270008DFF48029E493A3F85407240CC8C333CE
:101C3700C4540F4420C8834004F456800146F6DF9D
:101C4700E4800B0102040810204080901725E47EF1
:101C5700019360BCA3FF543F30E509541FFEE49392
:101C6700A360010ECF54C025E060A840B8E493A359
:101C7700FAE493A3F8E493A3C8C582C8CAC583CA84
:101C8700F0A3C8C582C8CAC583CADFE9DEE780BE3C
:0117ED0000FB
:10057700BB010689828A83E0225002E722BBFE0282
:09058700E32289828A83E49322B5
:10059000BB010CE58229F582E5833AF583E0225020
:1005A00006E92582F8E622BBFE06E92582F8E2226A
:0D05B000E58229F582E5833AF583E4932284
:1005BD00BB010689828A83F0225002F722BBFE011D
:0205CD00F32217
:1005CF00BC000BBE0029EF8DF084FFADF022E4CC10
:1005DF00F875F008EF2FFFEE33FEEC33FCEE9DECD9
:1005EF00984005FCEE9DFE0FD5F0E9E4CEFD22ED1F
:1005FF00F8F5F0EE8420D21CFEADF075F008EF2F69
:10060F00FFED33FD4007985006D5F0F222C398FD59
:05061F000FD5F0EA22F6
:10062400C5F0F8A3E028F0C5F0F8E5821582700261
:060634001583E038F022FE
:10063A00A3F8E0C5F025F0F0E58215827002158373
:06064A00E0C838F0E822D0
:10065000BB010A89828A83F0E5F0A3F0225006F7F5
:0F06600009A7F01922BBFE06F3E5F009F31922F2
:10066F00E88FF0A4CC8BF0A42CFCE98EF0A42CFC2A
:10067F008AF0EDA42CFCEA8EF0A4CDA8F08BF0A4A8
:10068F002DCC3825F0FDE98FF0A42CCD35F0FCEB07
:10069F008EF0A4FEA9F0EB8FF0A4CFC5F02ECD39CC
:0F06AF00FEE43CFCEAA42DCE35F0FDE43CFC2239
:1006BE0075F008758200EF2FFFEE33FECD33CDCCF3
:1006CE0033CCC58233C5829BED9AEC99E582984076
:1006DE000CF582EE9BFEED9AFDEC99FC0FD5F0D653
:1006EE00E4CEFBE4CDFAE4CCF9A88222B800C1B97D
:1006FE000059BA002DEC8BF084CFCECDFCE5F0CBBB
:10070E00F97818EF2FFFEE33FEED33FDEC33FCEBF3
:10071E0033FB10D703994004EB99FB0FD8E5E4F9AE
:10072E00FA227818EF2FFFEE33FEED33FDEC33FC9B
:10073E00C933C910D7059BE99A4007EC9BFCE99A8F
:10074E00F90FD8E0E4C9FAE4CCFB2275F010EF2FD4
:10075E00FFEE33FEED33FDCC33CCC833C810D707D4
:10076E009BEC9AE899400AED9BFDEC9AFCE899F80F
:0E077E000FD5F0DAE4CDFBE4CCFAE4C8F922A2
:0E078C00C3E49FFFE49EFEE49DFDE49CFC227E
:0C079A00ECF0A3EDF0A3EEF0A3EFF022D2
:1007A600A8828583F0D083D0821207BD1207BD12BE
:1007B60007BD1207BDE473E493A3C583C5F0C583E3
:1007C600C8C582C8F0A3C583C5F0C583C8C582C89D
:0107D6002200
:1007D700F8E0FBA3A3E0F925F0F0E58215827002AB
:0707E7001583E0FA38F0224F
:0907EE00EBF0A3EAF0A3E9F0220C
:1007F700D083D082F8E4937012740193700DA3A391
:1008070093F8740193F5828883E4737402936860A4
:06081700EFA3A3A380DFA4
:10081D00D083D082F8E4937012740193700DA3A36A
:10082D0093F8740193F5828883E473740293B5F0A1
:0D083D00067403936860E9A3A3A3A380D809
:10084A00EC8EF0A4CCC5F0CCCDF8EFA4CEC5F02D3B
:10085A00FDE43CFCE8A42EC8C5F03DFDE43CFCEFF9
:0D086A00A4FFE5F028FEE43DFDE43CFC2287
:00000001FF
